:1070000055C0000093C0000091C000008FC0000078
:107010008DC000008BC0000089C0000087C0000048
:1070200085C0000083C0000007C500007FC00000CD
:107030007DC000007BC0000079C0000077C0000068
:1070400075C0000073C0000071C000006FC0000078
:10705000A7C200006BC0000069C0000067C000004C
:1070600065C0000063C0000061C000005FC0000098
:107070005DC000005BC0000059C0000057C00000A8
:1070800055C0000053C0000051C000004FC00000B8
:107090004DC000004BC0000049C0000047C00000C8
:1070A00045C0000043C0000041C0000011241FBEC5
:1070B000CFEFDAE0DEBFCDBF84B714BE81FD21C0C3
:1070C00080FD07C08091850290918602873797479F
:1070D000C1F490E080E0FC01259134912F3F3F4FB7
:1070E00081F028E13FE00FB6F894A8952093600066
:1070F0000FBE309360001092860210928502FC0150
:10710000099511E0A0E0B1E0E2EDFEE702C00590D4
:107110000D92A83EB107D9F722E0A8EEB1E001C078
:107120001D92A538B207E1F783D0D1C669CF84E0BC
:107130008093E9008091E80085FF03C08091F10011
:107140000CC08091E8008B778093E8008091E80084
:1071500082FDF0CF8EB38111F9CF08958091E800C0
:1071600080FF02C080E008958EB38111F7CF81E0E7
:107170000895CF93C82F83E08093E9008091E800C1
:1071800085FF04C0C093F100CF9108959091E8006D
:107190009E779093E800E2DF8823A1F3F5CF9091EA
:1071A0007802E92FF0E0E850FE4F80839F5F9093D4
:1071B0007802903809F03BC08091790290917A0270
:1071C000811520E7920758F523E0FC012093570032
:1071D000E89507B600FCFDCFA8EFB1E030E020E075
:1071E00061E0FC01E20FF31F11965C9111974C9145
:1071F0000A0160935700E89511242E5F3F4F1296C5
:107200002038310571F725E0FC0120935700E895FF
:1072100007B600FCFDCF21E120935700E895805888
:107220009F4F90937A02809379021092780208958A
:1072300000D000D0CDB7DEB784B7877F84BF0FB64C
:10724000F894A89580916000886180936000109206
:1072500060000FBE80E890E00FB6F8948093610064
:10726000909361000FBE11E015BF82E085BFC7D3C8
:10727000209A289A559A5D9A10936F0083E0809324
:10728000810028985D9A81E58093E80182E48093EB
:10729000E90180E38093EA0182E38093EB0104E05B
:1072A00010E0C8010CD6F801E851FE4F80830F5F53
:1072B0001F4F00311105A9F7789401E070E2F72E15
:1072C000E4E0EE2EF3E0DF2EA1E1CA2E8091000172
:1072D00081111CC08FEC97E00197F1F700C000000E
:1072E0008091E00081608093E00087E797E79093CA
:1072F00086028093850288E19CE00FB6F894A895F9
:10730000809360000FBE90936000FFCFBE016F5F5F
:107310007F4F88E091E0B0D5811112C0E092E90082
:107320008091E80082FFDBC003B9F9B800DF182FB5
:10733000853409F03FC0109200018DE01ADFB2C021
:1073400003B9F9B88A8190E09C012058310935953C
:107350002795359527952C3039F4109278021092A4
:107360007A0210927902DACF2D3091F41B81BC8021
:1073700056E0880F991F5A95E1F7912F9695892B22
:107380000EDF20E8129FC00111248B2908DFC6CF31
:107390002E3019F410920001C1CF2A3009F0BECF6F
:1073A000BE016F5F7F4F88E091E023D588E091E0D8
:1073B0003CD5B4CF843511F4BADEBFCF803509F4A3
:1073C000BCCF8C3409F4B9CF843721F484E4D1DE06
:1073D00080E0B4CF89E5113609F4B0CF113491F4CF
:1073E000A6DE182FA4DE212F30E0322F2227330F04
:1073F00090E0880F991F282B392B30937A02209325
:1074000079029BCF83E5103709F498CF133571F4D7
:1074100081E5AFDE85E5ADDE89E4ABDE82E5A9DEA0
:107420008BE4A7DE82E4A5DE8FE488CF163521F455
:1074300081E39FDE80E382CF133731F487E899DE62
:1074400085E997DE8EE17ACF123631F489E591DE57
:1074500080E08FDE80E872CF123419F0173609F021
:1074600043C065DE64DE63DE123441F410927802BC
:1074700010E85DDE94DE1150E1F75FCFC092570057
:10748000E895B12CA12CE0917902F0917A02EA0DF5
:10749000FB1D84916EDE8FEFA81AB80A90E8A9163A
:1074A000B10489F7D092E9008091E8008E7780934B
:1074B000E8008091E80085FD08C050DE81110FC012
:1074C0008091E8008E778093E80048DE811107C044
:1074D000E092E9008091E8008B778093E80088E0F3
:1074E00091E0BBD456D4F2CE153571F488EEA82EB7
:1074F00081E0B82EF50181915F013BDEF8EFAF1618
:10750000F1E0BF06B9F7CECF1B3161F28FE316CFA2
:1075100042E061EC82E09BD142E161E883E097D1F7
:1075200042E160E884E093D188E091E04BC480912F
:107530007D02982F9F77913291F590917E02913242
:10754000A1F0923221F1903251F5813241F58091D2
:10755000E800877F8093E80067E070E081E091E0D9
:1075600041D18091E8008E770FC0813AC1F48091BB
:10757000E800877F8093E80067E070E081E091E0B9
:10758000D9D08091E8008B778093E800089581320C
:1075900031F48091E800877F8093E800A8C10895C6
:1075A0008F9381E083B980E289B98F911895FA01B0
:1075B000913081F0923099F09330D9F48823A1F082
:1075C00081508330B0F482E190E024E131E03183F6
:1075D0002083089582E190E026ED31E0F8CF8AEA39
:1075E00090E02CE231E0F3CF84E090E028E231E05B
:1075F000EECF90E080E030E020E0E9CFAF92BF92A4
:10760000CF92DF92FF920F931F93CF93DF936C0182
:10761000EB018A0189D1F82E811124C001151105D1
:1076200039F0F80180819181C81BD90BC80ED91E91
:10763000B12CA12C2097B1F08091E80085FD22C0EB
:107640008091E8008E778093E800A3D3011511059F
:10765000A1F0F80180819181A80EB91EB182A082AB
:1076600085E0F82E8F2DDF91CF911F910F91FF9024
:10767000DF90CF90BF90AF90089556D18823D1F27C
:10768000F82EF0CFF60181916F018093F1002197E0
:10769000FFEFAF1ABF0ACECFAF92BF92CF92DF9269
:1076A000FF920F931F93CF93DF936C01EB018A013D
:1076B0003BD1F82E811124C00115110539F0F801D4
:1076C00080819181C81BD90BC80ED91EB12CA12C69
:1076D0002097B1F08091E80085FD22C08091E800FC
:1076E0008B778093E80055D301151105A1F0F801BF
:1076F00080819181A80EB91EB182A08285E0F82E0A
:107700008F2DDF91CF911F910F91FF90DF90CF9040
:10771000BF90AF90089508D18823D1F2F82EF0CF12
:107720008091F100F60181936F012197FFEFAF1A6D
:10773000BF0ACECFFC01CB0120918302309184029D
:107740002617370790F0009729F42091E8002E774C
:107750002093E80040E0009751F4411108C0809167
:10776000E80082FF30C080E00895C901F3CF2EB356
:107770002223A1F12530A1F12091E80023FD2CC0A6
:107780002091E80022FDEBCF2091E80020FFE3CF1D
:107790003091F3002091F200009719F02034310568
:1077A00058F041E02034310509F040E02091E80034
:1077B0002E772093E800CFCF41914093F1000197BD
:1077C0002F5F3F4FE9CF8EB3882341F0853041F0E2
:1077D0008091E80083FFC3CF81E0089582E008959F
:1077E00083E00895FC01CB01009729F42091E80083
:1077F0002B772093E800009731F48091E80080FF18
:107800001BC080E008952EB32223F9F02530C9F083
:107810002091E80023FD17C02091E80022FFEBCF64
:107820003091F3002091F200232B01F32091F1001D
:1078300021930197A9F7DACF8EB3882331F08530F1
:10784000E1F683E0089581E0089582E008958F7065
:107850008093E900EBEEF0E0808181608083EDEEC3
:10786000F0E010826093EC0040838091EE00881F6E
:107870008827881F08950F931F93CF93DF93162FA8
:10788000EC0100E0011302C081E00BC0988191116E
:1078900003C00F5F2596F6CF892F8F70873030F0A9
:1078A00080E0DF91CF911F910F9108952C8142E0EC
:1078B000223008F046E0E981FA8168E070E020E0DB
:1078C0006E177F0780F02295207F422B6B8120E48A
:1078D000629FB0011124991F9927991F692BB7DF67
:1078E0008111D7CFDDCF2F5F660F771FE9CF809152
:1078F0007D0287FF11C08091E80082FF06C0809161
:10790000E8008B778093E80003C08EB38111F3CF3A
:1079100008958EB38823E1F38091E80080FFF9CFCA
:107920008091E8008E77EECF2091E4003091E50061
:1079300095E6A9012091EC00822F817020FF06C0FE
:107940008091E80080FF06C080E008952091E80063
:1079500022FD19C08EB3882389F0853089F080918B
:10796000EB0085FD0FC02091E4003091E500421747
:10797000530701F39150E9F684E0089582E00895F9
:1079800083E0089581E008950F931F93CF93DF93D1
:1079900046D04DD0C8EDD0E088818F77888388812C
:1079A0008068888388818F7D888319BC1EBA109275
:1079B0007B0200EE10E0F80180818B7F808388815C
:1079C0008160888342E360E080E041DFE1EEF0E047
:1079D00080818E7F8083E2EEF0E080818160808311
:1079E000808188608083F80180818E7F8083888198
:1079F00080618883DF91CF911F910F910895E8ED09
:107A0000F0E080818F7E8083E7EDF0E0808181600F
:107A1000808384E082BF81E080937C02B5CFE8ED73
:107A2000F0E080818E7F80831092E20008951092B2
:107A3000DA001092E10008951F920F920FB60F9294
:107A400011242F933F934F935F936F937F938F9363
:107A50009F93AF93BF93EF93FF938091DA0080FFE2
:107A600016C08091D80080FF12C08091DA008E7F0E
:107A70008093DA008091D90019BC80FF83C082E036
:107A800089BD09B400FEFDCF81E08EBB81D180911C
:107A9000E10080FF17C08091E20080FF13C0809159
:107AA000E2008E7F8093E2008091E200806180930B
:107AB000E2008091D80080628093D80019BC85E0F4
:107AC0008EBB66D18091E10084FF26C08091E200E8
:107AD00084FF22C019BC82E089BD09B400FEFDCF3D
:107AE0008091D8008F7D8093D8008091E1008F7EB7
:107AF0008093E1008091E2008F7E8093E20080918C
:107B0000E20081608093E20080917B02882309F487
:107B10003CC084E08EBB3CD18091E10083FF21C05A
:107B20008091E20083FF1DC08091E100877F8093F8
:107B3000E10082E08EBB10927B028091E1008E7F9B
:107B40008093E1008091E2008E7F8093E20080913B
:107B5000E20080618093E20042E360E080E077DE53
:107B600017D1FF91EF91BF91AF919F918F917F912D
:107B70006F915F914F913F912F910F900FBE0F909A
:107B80001F9018951EBA04D182CF8091E30087FD23
:107B900002C081E0BFCF83E0BDCF1F93CF93DF93BF
:107BA00000D0CDB7DEB78DE792E0FC0101962091C1
:107BB000F100208322E085389207B9F7B8DC809184
:107BC000E80083FF0FC090917D0280917E02853096
:107BD00009F495C0D8F4282F2D7F213009F45AC01C
:107BE0008823D1F18091E80083FF0AC08091E800EA
:107BF000877F8093E8008091EB0080628093EB00A8
:107C00000F900F90DF91CF911F910895883009F464
:107C100095C0893009F49FC0863021F79058923082
:107C200008F7AE014F5F5F4F6091810280917F0244
:107C300090918002BCDCBC01892BA1F28091E8000C
:107C4000877F8093E80089819A8174DD8091E800C4
:107C50008B778093E800C6CF903879F0923809F09E
:107C6000C1CF809181028F708093E9008091EB00F9
:107C700085FB882780F91092E9009091E800977FB2
:107C80009093E8008093F1001092F1008091E80059
:107C90008E771EC0923009F0A5CF90917F0291118E
:107CA00012C0909181029F7009F49CCF9093E900DB
:107CB0002091EB0020FF07C0833071F48091EB002E
:107CC00080628093EB001092E9008091E800877F4A
:107CD0008093E8000CDE86CF8091EB00806180937A
:107CE000EB0021E030E001C0220F9A95EAF72093E3
:107CF000EA001092EA008091EB008860E2CF9111D7
:107D000071CF10917F021F778091E3008078812BE3
:107D10008093E3008091E800877F8093E800E7DDAF
:107D20008091E80080FFFCCF8091E3008068809321
:107D3000E30082E0111183E08EBB54CF903809F04C
:107D400051CF8091E800877F8093E80080917B028B
:107D50008093F1009BCF911145CF90917F0292309B
:107D600008F040CF8091E800877F8093E8009093EF
:107D70007B02BDDD80917B02882311F084E005C089
:107D80008091E30087FDFACF81E08EBBC1DB2ACF73
:107D90000895CF938EB3882399F0C091E900CF70F6
:107DA0009091EC00892F817090FD80E8C82B109293
:107DB000E9008091E80083FDF0DECF70C093E90018
:107DC000CF910895CF93DF93EC011B8682E08C83E3
:107DD000898761E0CE0101964EDD882331F061E0B4
:107DE000CE010696DF91CF9146CD80E0DF91CF9115
:107DF0000895FC01CB012EB32430A9F421812F700A
:107E00002093E90050E040E064E070E0F7DB81118E
:107E10000BC09091E80095FD07C09091E8009E7717
:107E20009093E800089582E00895FC018EB38430B9
:107E300081F481818F708093E9009091F3008091AB
:107E4000F200892B41F08091E8008E778093E80062
:107E50006BCD82E0089580E00895FC018EB38430FC
:107E600051F481818F708093E9008091E80080FF58
:107E700002C0CF01DACF0895FC01CB012EB324302C
:107E800011F080E0089526812F702093E900209161
:107E9000E80022FFF6CF2091E80025FFF2CF50E066
:107EA00040E064E070E0F8DB8091E80085FD05C00B
:107EB0008091E8008B778093E80081E00895F9993C
:107EC000FECF92BD81BDF89A992780B50895F894A8
:027ED000FFCFE2
:107ED2000100000000000008038640000001054088
:107EE20000000100120351007500690072006B006E
:107EF20062006F0074000000040309040902AA0072
:107F02000401006032080B000202020100090400B1
:107F120000010202010005240010010424020605EA
:107F220024060001070582030800FF09040100027C
:107F32000A0000000705040210000507058302106D
:107F42000005080B02020101000009040200000101
:107F520001000009240100010900010309040300D2
:107F6200020103000007240100014100062402016E
:107F72000100062402020200092403010301020196
:107F82000009240302040101010009050502400061
:107F920000000005250101010905860240000000DC
:107FA20000052501010312010002EF0201408628AB
:087FB20006F0000101020301C9
:087FF80000700000323042511C
:040000030000700089
:00000001FF
