:1070000055C0000093C0000091C000008FC0000078
:107010008DC000008BC0000089C0000087C0000048
:1070200085C0000083C0000019C500007FC00000BB
:107030007DC000007BC0000079C0000077C0000068
:1070400075C0000073C0000071C000006FC0000078
:10705000A9C200006BC0000069C0000067C000004A
:1070600065C0000063C0000061C000005FC0000098
:107070005DC000005BC0000059C0000057C00000A8
:1070800055C0000053C0000051C000004FC00000B8
:107090004DC000004BC0000049C0000047C00000C8
:1070A00045C0000043C0000041C0000011241FBEC5
:1070B000CFEFDAE0DEBFCDBF84B714BE81FD21C0C3
:1070C00080FD07C08091850290918602873797479F
:1070D000C1F4E0E0F0E085919491019691F02FE009
:1070E00088E190E00FB6F894A895809360000FBEF9
:1070F000209360001092860210928502E0E0F0E09A
:10710000099511E0A0E0B1E0EAE0FFE702C00590D8
:107110000D92A83EB107D9F722E0A8EEB1E001C078
:107120001D92A538B207E1F788D0EDC669CF84E09B
:107130008093E9008091E80085FD0EC08091E80011
:107140008B778093E8008091E80082FDF3CF8EB3C7
:107150008111F9CF80E008958091F1000895809128
:10716000E80080FD05C08EB38111F9CF81E008955C
:1071700080E00895CF93C82F83E08093E900809149
:10718000E80085FF03C0C093F10008C09091E800BB
:107190009E779093E800E3DF8823A9F3CF910895C9
:1071A00090917802E92FF0E0E850FE4F80839F5FD6
:1071B00090937802903809F03FC020917902309185
:1071C0007A02211580E7380770F583E0F901809392
:1071D0005700E89507B600FCFDCF80E090E061E045
:1071E000DC01A850BE4FFC01E20FF31F11964C9139
:1071F000119750E0542F44277C91472B0A0160934C
:107200005700E895112402968038910549F785E0EA
:10721000F90180935700E89507B600FCFDCF81E1A6
:1072200080935700E89520583F4F30937A0220937F
:1072300079021092780208950895CF93DF9300D0D9
:1072400000D0CDB7DEB784B7877F84BF88E10FB6A3
:10725000F89480936000109260000FBE90E080E888
:107260000FB6F89480936100909361000FBE11E017
:1072700015BF82E085BFD5D3209A289A559A5D9A8A
:1072800010936F0083E08093810028985D9A81E5D8
:107290008093E80182E48093E90180E38093EA012E
:1072A00081E38093EB012CEEE22E21E0F22E04E04C
:1072B00010E0C80120D6F70181937F010F5F1F4FB7
:1072C00000311105B1F77894FF24F39410E2E12E18
:1072D00004E0D02E83E0C82E91E1B92E8091000108
:1072E000882309F4F9C0BE016F5F7F4F88E091E009
:1072F000DFD58823C1F1F3B8E9B84A8150E09A019B
:107300002058310935952795359527951B810C8196
:107310002C3039F41092780210927A02109279028D
:1073200022C02D3081F4A6E0440F551FAA95E1F745
:10733000812F8695842B34DFF0E81F9FC001112434
:10734000802B2EDF10C02E3019F4109200010BC0DC
:107350002A3049F4BE016F5F7F4F88E091E063D52A
:1073600088E091E07ED5D092E9008091E80082FF2C
:10737000AEC0F3B8E9B8DBDE182F853419F41092EB
:10738000000126C0843511F4D2DE22C0803501F11F
:107390008C34F1F0843721F484E4ECDE80E079C0B1
:1073A000813611F489E575C08134A1F4C0DE182F4F
:1073B000BEDE282F30E0220F331F812F90E0982F60
:1073C0008827990F282B392B30937A022093790242
:1073D0008DE05FC0803711F483E55BC0833571F4C5
:1073E00081E5C8DE85E5C6DE89E4C4DE82E5C2DE6D
:1073F0008BE4C0DE82E4BEDE8FE44BC0863521F430
:1074000081E3B8DE80E345C0833731F487E8B2DE3C
:1074100085E9B0DE8EE13DC0823631F489E5AADE31
:1074200080E0A8DE80E835C0823411F0873609F5A7
:107430007EDE7DDE7CDE123449F41092780210E0AC
:1074400076DEAEDE1F5F1038D9F7C2CFB09257009C
:10745000E89500E010E0E0917902F0917A02E00F07
:10746000F11F849187DE0F5F1F4F0038110599F7D8
:1074700011C0853559F408EE11E0F80181918F01B2
:1074800079DEF1E0083F1F07C1F704C08B3111F02E
:107490008FE370DEC092E9008091E8008E778093E0
:1074A000E8008091E80085FD08C059DE81110FC019
:1074B0008091E8008E778093E80051DE811107C04B
:1074C000D092E9008091E8008B778093E80088E013
:1074D00091E0E1D476D402CF8FEC97E00197F1F7F9
:1074E00000C000008091E00081608093E00087E7A9
:1074F00097E790938602809385022CE088E190E0E4
:107500000FB6F894A895809360000FBE209360009A
:10751000FFCF42E061EC82E0AAD142E161E883E082
:10752000A6D142E160E884E0A2D188E091E064C4A1
:1075300080917D02982F9F77913299F590917E02EC
:10754000913229F0923229F1903259F510C0813AE6
:1075500041F58091E800877F8093E80067E070E064
:1075600081E091E0E6D08091E8008B770FC0813216
:10757000C1F48091E800877F8093E80067E070E0C5
:1075800081E091E036D18091E8008E778093E80029
:107590000895813231F48091E800877F8093E8007C
:1075A000B7C108951F920F920FB60F9211248F93B7
:1075B00081E083B980E289B98F910F900FBE0F905F
:1075C0001F901895913099F09230B1F0933029F0D6
:1075D00080E090E020E030E018C0882391F08150F6
:1075E0008230B0F782E190E024E131E00EC082E128
:1075F00090E026ED31E009C08AEA90E02CE231E02B
:1076000004C084E090E028E231E0FA013183208375
:107610000895CF92DF92EF92FF920F931F93CF9333
:10762000DF937C018B01EA0192D1811131C0209757
:1076300031F088819981081B190BE80EF91EC12CC5
:10764000D12C0115110519F18091E80085FD14C0B8
:107650008091E8008E778093E800B3D3209741F0C3
:10766000888199818C0D9D1D9983888385E010C048
:107670006ED1882331F30CC0F70181917F01809393
:10768000F10001501109FFEFCF1ADF0ADACF80E0D5
:10769000DF91CF911F910F91FF90EF90DF90CF90EE
:1076A0000895CF92DF92EF92FF920F931F93CF93A3
:1076B000DF937C018B01EA014AD1811131C020970F
:1076C00031F088819981081B190BE80EF91EC12C35
:1076D000D12C0115110519F18091E80085FD14C028
:1076E0008091E8008B778093E8006BD3209741F07E
:1076F000888199818C0D9D1D9983888385E010C0B8
:1077000026D1882331F30CC08091F100F7018193D9
:107710007F0101501109FFEFCF1ADF0ADACF80E0B5
:10772000DF91CF911F910F91FF90EF90DF90CF905D
:10773000089520918302309184022617370748F07C
:107740006115710539F42091E8002E772093E80047
:1077500001C0B901FC0120E061157105B9F18EB3DA
:10776000882309F440C0853009F43FC08091E800C7
:1077700083FD3DC08091E80082FF06C08091E80053
:1077800082FF27C080E008958091E80080FFE4CF69
:107790002091F3008091F20090E0922B6115710529
:1077A00051F08034910538F421912093F10061501B
:1077B00071090196F3CF21E08034910509F020E0B2
:1077C0008091E8008E778093E800C6CF2111C7CF63
:1077D000D5CF8EB3882339F0853039F08091E80019
:1077E00083FFCCCF04C082E0089583E0089581E058
:1077F00008956115710529F42091E8002B772093F5
:10780000E8006115710531F12EB3222361F12530B5
:1078100061F12091E80023FD22C02091E80022FFC1
:10782000F3CFFC01CF014091F3002091F20030E052
:10783000342B232B09F38091F1008193CF01615008
:1078400071096115710571F7D7CF8EB3882359F08F
:10785000853059F08091E80080FFF7CF02C081E0C9
:10786000089580E0089582E0089583E008958F7080
:107870008093E900EBEEF0E0808181608083EDEEA3
:10788000F0E010826093EC0040838091EE00881F4E
:107890008827881F08950F931F93CF93DF93062F98
:1078A000EC0110E0101771F19881992341F12C81BE
:1078B000E981FA817B81892F8F70873010F080E019
:1078C00022C0223010F056E001C052E028E030E043
:1078D00040E02E173F0720F44F5F220F331FF9CFF0
:1078E0004295407F452B692F661F6627661F90E4EF
:1078F000799F90011124622BBADF882301F31F5F67
:107900002596D0CF81E0DF91CF911F910F910895FF
:1079100080917D0287FD05C08091E80080FF0DC049
:1079200010C08091E80082FD04C08EB38111F9CFB0
:1079300008958091E8008B7707C08EB38111ECCF5A
:1079400008958091E8008E778093E80008958091F3
:10795000E4009091E50045E62091EC0020FF20C076
:107960002091E80020FD20C02EB3222389F025308D
:1079700089F02091EB0025FD0FC02091E4003091AB
:10798000E5002817390741F3415041F0C901E4CF20
:1079900082E0089583E0089581E0089584E00895E9
:1079A0002091E80022FFE0CF80E008950F931F931D
:1079B000CF93DF9346D04DD0C8EDD0E088818F774C
:1079C000888388818068888388818F7D888319BCBB
:1079D0001EBA10927B0200EE10E0F80180818B7FCE
:1079E000808388818160888342E360E080E03FDFBC
:1079F000E1EEF0E080818E7F8083E2EEF0E0808136
:107A000081608083808188608083F80180818E7F9F
:107A10008083888180618883DF91CF911F910F914E
:107A20000895E8EDF0E080818F7E8083E7EDF0E05F
:107A300080818160808384E082BF81E080937C02CA
:107A4000B5CFE8EDF0E080818E7F80831092E20078
:107A500008951092DA001092E10008951F920F929B
:107A60000FB60F9211242F933F934F935F936F9311
:107A70007F938F939F93AF93BF93EF93FF938091E7
:107A8000DA0080FF19C08091D80080FF15C0809176
:107A9000DA008E7F8093DA008091D90019BC80FFD4
:107AA00009C082E089BD09B400FEFDCF81E08EBB34
:107AB00087D102C01EBA84D18091E10080FF17C037
:107AC0008091E20080FF13C08091E2008E7F80935E
:107AD000E2008091E20080618093E2008091D80012
:107AE00080628093D80019BC85E08EBB69D18091FB
:107AF000E10084FF2DC08091E20084FF29C019BC01
:107B000082E089BD09B400FEFDCF8091D8008F7D51
:107B10008093D8008091E1008F7E8093E100809176
:107B2000E2008F7E8093E2008091E200816080938A
:107B3000E20080917B02882311F084E007C08091ED
:107B4000E30087FF02C083E001C081E08EBB38D133
:107B50008091E10083FF21C08091E20083FF1DC07E
:107B60008091E100877F8093E10082E08EBB1092DC
:107B70007B028091E1008E7F8093E1008091E200A2
:107B80008E7F8093E2008091E20080618093E2002A
:107B900042E360E080E06BDE13D1FF91EF91BF9193
:107BA000AF919F918F917F916F915F914F913F9195
:107BB0002F910F900FBE0F901F9018951F93CF938A
:107BC000DF9300D0CDB7DEB7EDE7F2E08091F100B2
:107BD000819382E0E538F807C9F7AADC8091E800D4
:107BE00083FFDAC090917D0280917E02853009F496
:107BF00065C030F4813059F168F0833041F1CCC078
:107C0000883009F49CC0893009F4ABC0863009F093
:107C1000C3C075C0903881F0923809F0BDC0809122
:107C200081028F708093E9009091EB0095FB99277A
:107C300090F91092E90001C090E08091E800877F00
:107C40008093E8009093F1001092F10083C0292FF7
:107C50002D7F09F0A1C0923009F09EC090917F0263
:107C6000911126C0209181022F7009F495C02093B4
:107C7000E9009091EB0090FF1BC0833021F48091CC
:107C8000EB00806213C08091EB0080618093EB0079
:107C900081E090E0022E01C0880F0A94EAF78093F9
:107CA000EA001092EA008091EB0088608093EB007C
:107CB0001092E9008091E800877F4FC091116CC05D
:107CC00010917F021F778091E3008078812B809351
:107CD000E3008091E800877F8093E80019DE8091BF
:107CE000E80080FFFCCF8091E30080688093E30090
:107CF000112311F083E001C082E08EBB4DC090588B
:107D0000923008F049C0AE014F5F5F4F6091810231
:107D100080917F029091800255DC009709F43CC06D
:107D20002091E800277F2093E800BC0189819A8197
:107D300000DD8091E8008B778093E8002DC09038BB
:107D400059F58091E800877F8093E80080917B025D
:107D50008093F1008091E8008E778093E800D8DD71
:107D60001BC0911119C090917F029230A8F48091AC
:107D7000E800877F8093E80090937B02C9DD8091C3
:107D80007B02811104C08091E30087FF02C084E080
:107D900001C081E08EBBBDDB8091E80083FF0AC09B
:107DA0008091E800877F8093E8008091EB008062FB
:107DB0008093EB000F900F90DF91CF911F9108956A
:107DC0000895CF938EB38823A9F08091E9008F7036
:107DD0009091EC0090FF02C090E801C090E0C92FA4
:107DE000C82B1092E9008091E80083FDE7DECF7098
:107DF000C093E900CF910895CF93DF93EC011B86E8
:107E000082E08C83898761E0CE01019644DD88237E
:107E100031F061E0CE010696DF91CF913CCD80E05C
:107E2000DF91CF910895FC01CB012EB32430A9F44A
:107E300021812F702093E90040E050E064E070E081
:107E4000E8DB81110DC08091E80085FD08C08091BC
:107E5000E8008E778093E80002C082E0089580E019
:107E600008952EB3243099F4FC0181818F708093A2
:107E7000E9002091F3008091F20090E0922B892B91
:107E800041F08091E8008E778093E80060CD82E039
:107E9000089580E008952EB3243049F4FC01218137
:107EA0002F702093E9002091E80020FDDACF08959B
:107EB000FC01CB012EB3243011F080E0089526811F
:107EC0002F702093E9002091E80022FFF6CF209147
:107ED000E80025FFF2CF40E050E064E070E0E1DB35
:107EE0008091E80085FD05C08091E8008B77809344
:107EF000E80081E00895F999FECF92BD81BDF89A1E
:0A7F0000992780B50895F894FFCF8B
:107F0A00010000000000000803864000000105404F
:107F1A0000000100120351007500690072006B0035
:107F2A0062006F0074000000040309040902AA0039
:107F3A000401006032080B00020202010009040079
:107F4A0000010202010005240010010424020605B2
:107F5A0024060001070582030800FF090401000244
:107F6A000A00000007050402100005070583021035
:107F7A000005080B020201010000090402000001C9
:107F8A00010000092401000109000103090403009A
:107F9A000201030000072401000141000624020136
:107FAA00010006240202020009240301030102015E
:107FBA000009240302040101010009050502400029
:107FCA0000000005250101010905860240000000A4
:107FDA0000052501010312010002EF020140862873
:087FEA0006F000010102000194
:087FF80000700000313042511D
:040000030000700089
:00000001FF
