:1070000055C0000093C0000091C000008FC0000078
:107010008DC000008BC0000089C0000087C0000048
:1070200085C0000083C000000EC500007FC00000C6
:107030007DC000007BC0000079C0000077C0000068
:1070400075C0000073C0000071C000006FC0000078
:10705000A9C200006BC0000069C0000067C000004A
:1070600065C0000063C0000061C000005FC0000098
:107070005DC000005BC0000059C0000057C00000A8
:1070800055C0000053C0000051C000004FC00000B8
:107090004DC000004BC0000049C0000047C00000C8
:1070A00045C0000043C0000041C0000011241FBEC5
:1070B000CFEFDAE0DEBFCDBF84B714BE81FD21C0C3
:1070C00080FD07C08091850290918602873797479F
:1070D000C1F490E080E0FC01259134912F3F3F4FB7
:1070E00081F028E13FE00FB6F894A8952093600066
:1070F0000FBE309360001092860210928502FC0150
:10710000099511E0A0E0B1E0EEEEFEE702C00590C7
:107110000D92A83EB107D9F722E0A8EEB1E001C078
:107120001D92A538B207E1F784D0DFC669CF84E0AD
:107130008093E9008091E80085FF03C08091F10011
:1071400008958091E8008B778093E8008091E800B3
:1071500082FDF0CF8EB38111F9CF80E00895809148
:10716000E80080FF02C080E008958EB38111F7CF60
:1071700081E00895CF93C82F83E08093E900809148
:10718000E80085FF04C0C093F100CF91089580917D
:10719000E8008E778093E800E2DF8823A1F3F5CF43
:1071A00090917802E92FF0E0E850FE4F80839F5FD6
:1071B00090937802903809F03BC0809179029091C9
:1071C0007A02811520E7920758F523E0FC0120930D
:1071D0005700E89507B600FCFDCFA8EFB1E030E01E
:1071E00020E061E0FC01E20FF31F11965C91119722
:1071F0004C910A0160935700E89511242E5F3F4F90
:1072000012962038310571F725E0FC0120935700D4
:10721000E89507B600FCFDCF21E120935700E895E3
:1072200080589F4F90937A0280937902109278024F
:10723000089500D000D0CDB7DEB784B7877F84BF74
:107240000FB6F894A89580916000886180936000E3
:10725000109260000FBE80E890E00FB6F894809323
:107260006100909361000FBE11E015BF82E085BF01
:10727000CDD3209A289A559A5D9A10936F0083E097
:107280008093810028985D9A81E58093E80182E4EB
:107290008093E90180E38093EA0181E38093EB012D
:1072A00004E010E0C80119D6F801E851FE4F8083D0
:1072B0000F5F1F4F00311105A9F7789401E070E2CC
:1072C000D72EE4E0CE2EF3E0BF2EA1E1AA2EB8EF38
:1072D000EB2EB1E0FB2E8091000181111CC08FECE0
:1072E00097E00197F1F700C000008091E000816015
:1072F0008093E00087E797E790938602809385026A
:1073000088E19CE00FB6F894A895809360000FBECA
:1073100090936000FFCFBE016F5F7F4F88E091E0E8
:10732000B8D5811111C0C092E9008091E80082FFB8
:10733000DAC003B9D9B8FBDE182F853409F03EC096
:10734000109200018DE049C003B9D9B88A8190E05C
:107350009C012058310935952795359527952C3076
:1073600039F41092780210927A0210927902DBCFEF
:107370002D3091F41B819C8056E0880F991F5A95FF
:10738000E1F7912F9695892B0BDF20E8129FC00122
:107390001124892905DFC7CF2E3019F4109200017E
:1073A000C2CF2A3009F0BFCFBE016F5F7F4F88E0A8
:1073B00091E02BD588E091E045D5B5CF843511F427
:1073C000B6DEC0CF803509F4BDCF8C3409F4BACF16
:1073D000843729F484E4CEDE80E0CCDE67C089E522
:1073E0001136D9F3113491F4A2DE182FA0DE212F2B
:1073F00030E0322F2227330F90E0880F991F282B7F
:10740000392B30937A02209379029CCF83E5103791
:1074100021F3133571F481E5ADDE85E5ABDE89E45A
:10742000A9DE82E5A7DE8BE4A5DE82E4A3DE8FE49D
:10743000D4CF163521F481E39DDE80E3CECF133720
:1074400031F487E897DE85E995DE8EE1C6CF123606
:1074500031F489E58FDE80E08DDE80E8BECF123426
:1074600019F0173609F044C062DE61DE60DE1234C6
:1074700049F41092780210E05ADE92DE1F5F103855
:10748000D9F760CFA0925700E895912C812CE0911C
:107490007902F0917A02E80DF91D84916BDE8FEF8D
:1074A000881A980A90E88916910489F7B092E90041
:1074B0008091E8008E778093E8008091E80085FD58
:1074C00008C04DDE81110FC08091E8008E77809357
:1074D000E80045DE811107C0C092E9008091E80014
:1074E0008B778093E80088E091E0C4D45DD4F3CE3C
:1074F000153561F488EE882E81E0982EF401819193
:107500004F0138DEE814F904C9F7D0CF1B3171F20E
:107510008FE363CF42E061EC82E0A2D142E161E817
:1075200083E09ED142E160E884E09AD188E091E076
:1075300055C480917D02982F9F77913291F590915B
:107540007E029132A1F0923221F1903251F58132D6
:1075500041F58091E800877F8093E80067E070E064
:1075600081E091E045D18091E8008E770FC0813AAB
:10757000C1F48091E800877F8093E80067E070E0C5
:1075800081E091E0D9D08091E8008B778093E8008A
:107590000895813231F48091E800877F8093E8007C
:1075A000AFC108958F9381E083B980E289B98F914B
:1075B0001895913089F09230A1F09330E1F488234E
:1075C000A9F081508230B8F482E190E024E131E00A
:1075D000FA0131832083089582E190E026ED31E0C5
:1075E000F7CF8AEA90E02CE231E0F2CF84E090E03D
:1075F00028E231E0EDCF90E080E030E020E0E8CF1D
:10760000AF92BF92CF92DF92FF920F931F93CF93CF
:10761000DF936C01EB018A0190D1F82E811124C017
:107620000115110539F0F80180819181C81BD90B32
:10763000C80ED91EB12CA12C2097B1F08091E80082
:1076400085FD22C08091E8008E778093E800ACD35E
:1076500001151105A1F0F80180819181A80EB91ED4
:10766000B182A08285E0F82E8F2DDF91CF911F91FE
:107670000F91FF90DF90CF90BF90AF9008955DD1B4
:107680008823D1F2F82EF0CFF60181916F0180931B
:10769000F1002197FFEFAF1ABF0ACECFAF92BF9292
:1076A000CF92DF92FF920F931F93CF93DF936C01E2
:1076B000EB018A0142D1F82E811124C00115110578
:1076C00039F0F80180819181C81BD90BC80ED91EF1
:1076D000B12CA12C2097B1F08091E80085FD22C04B
:1076E0008091E8008B778093E8005ED30115110547
:1076F000A1F0F80180819181A80EB91EB182A0820B
:1077000085E0F82E8F2DDF91CF911F910F91FF9083
:10771000DF90CF90BF90AF9008950FD18823D1F222
:10772000F82EF0CF8091F100F60181936F0121973F
:10773000FFEFAF1ABF0ACECFFC0180918302909178
:10774000840286179707A0F06115710529F49091BE
:10775000E8009E779093E80090E06115710551F480
:10776000911108C08091E80082FF33C080E0089545
:10777000BC01F2CF8EB38823B9F18530B9F1809185
:10778000E80083FD2FC08091E80082FDEBCF80915F
:10779000E80080FFE2CF8091F3002091F200382FC3
:1077A0006115710519F02034310558F091E020344D
:1077B000310509F090E02091E8002E772093E80051
:1077C000CCCF81918093F100615071092F5F3F4FC1
:1077D000E7CF8EB3882341F0853041F08091E800F7
:1077E00083FFC0CF81E0089582E0089583E008958B
:1077F000FC016115710529F49091E8009B77909345
:10780000E8006115710531F48091E80080FF1DC02A
:1078100080E008958EB3882309F18530D9F08091F6
:10782000E80083FD19C08091E80082FFEACF8091D3
:10783000F3002091F200382F232BF1F28091F10018
:1078400081936150710999F7D7CF8EB3882331F0B6
:107850008530D1F683E0089581E0089582E00895AF
:107860008F708093E900EBEEF0E08081816080838F
:10787000EDEEF0E010826093EC0040838091EE002A
:10788000881F8827881F08950F931F93CF93DF9336
:10789000062FEC0110E0101302C081E00BC09881AC
:1078A000911103C01F5F2596F6CF892F8F70873007
:1078B00030F080E0DF91CF911F910F9108952C81DE
:1078C00042E0223008F046E0E981FA8168E070E0A9
:1078D00020E06E177F0780F02295207F422B6B817E
:1078E00020E4629FB0011124991F9927991F692BE9
:1078F000B7DF8111D7CFDDCF2F5F660F771FE9CFBD
:1079000080917D0287FF11C08091E80082FF06C050
:107910008091E8008B778093E80003C08EB38111DB
:10792000F3CF08958EB38823E1F38091E80080FFC0
:10793000F9CF8091E8008E77EECF2091E40030916E
:10794000E50085E6A9019091EC0090FF06C09091BA
:10795000E80090FF06C080E008959091E80092FD55
:10796000FACF9EB3992389F0953089F09091EB007E
:1079700095FD0FC02091E4003091E50042175307B8
:1079800011F38150F9F684E0089582E0089583E0D0
:10799000089581E008950F931F93CF93DF9346D00E
:1079A0004DD0C8EDD0E088818F778883888180684A
:1079B000888388818F7D888319BC1EBA10927B02D0
:1079C00000EE10E0F80180818B7F808388818160E8
:1079D000888342E360E080E043DFE1EEF0E0808115
:1079E0008E7F8083E2EEF0E0808181608083808101
:1079F00088608083F80180818E7F808388818061A8
:107A00008883DF91CF911F910F910895E8EDF0E009
:107A100080818F7E8083E7EDF0E0808181608083CC
:107A200084E082BF81E080937C02B5CFE8EDF0E096
:107A300080818E7F80831092E20008951092DA0098
:107A40001092E10008951F920F920FB60F92112429
:107A50002F933F934F935F936F937F938F939F9356
:107A6000AF93BF93EF93FF938091DA0080FF16C02E
:107A70008091D80080FF12C08091DA008E7F8093C1
:107A8000DA008091D90019BC80FF83C082E089BDF3
:107A900009B400FEFDCF81E08EBB85D18091E1006D
:107AA00080FF17C08091E20080FF13C08091E20048
:107AB0008E7F8093E2008091E20080618093E200FB
:107AC0008091D80080628093D80019BC85E08EBB7D
:107AD0006AD18091E10084FF26C08091E20084FF9A
:107AE00022C019BC82E089BD09B400FEFDCF80919F
:107AF000D8008F7D8093D8008091E1008F7E8093A5
:107B0000E1008091E2008F7E8093E2008091E200AC
:107B100081608093E20080917B02882309F43CC05D
:107B200084E08EBB40D18091E10083FF21C0809131
:107B3000E20083FF1DC08091E100877F8093E10018
:107B400082E08EBB10927B028091E1008E7F809359
:107B5000E1008091E2008E7F8093E2008091E2005C
:107B600080618093E20042E360E080E079DE1BD137
:107B7000FF91EF91BF91AF919F918F917F916F9105
:107B80005F914F913F912F910F900FBE0F901F90DB
:107B900018951EBA08D182CF8091E30087FD02C0FC
:107BA00081E0BFCF83E0BDCF1F93CF93DF9300D0A1
:107BB000CDB7DEB78DE792E02091F100FC01219373
:107BC000CF01F2E085389F07B9F7B3DC8091E80078
:107BD00083FF11C090917D0280917E02853009F46F
:107BE00099C0E8F4813009F460C0882309F43DC0ED
:107BF000833009F45AC08091E80083FF0AC0809165
:107C0000E800877F8093E8008091EB00806280939A
:107C1000EB000F900F90DF91CF911F910895883066
:107C200009F497C0893009F4A1C0863021F7905833
:107C3000923008F7AE014F5F5F4F609181028091F3
:107C40007F0290918002B5DCBC01892BA1F290915A
:107C5000E800977F9093E80089819A816DDD80919B
:107C6000E8008B778093E800C6CF9038E1F0923837
:107C700009F0C1CF809181028F708093E9008091DB
:107C8000EB0085FB882780F91092E9009091E800CD
:107C9000977F9093E8008093F1001092F10080911B
:107CA000E8008E7720C080E0F1CF923009F0A3CFBA
:107CB00090917F02911112C0909181029F7009F4FE
:107CC0009ACF9093E9002091EB0020FF07C083300A
:107CD00071F48091EB0080628093EB001092E900D8
:107CE0008091E800877F8093E8000ADE84CF80914E
:107CF000EB0080618093EB0021E030E001C0220FB7
:107D00009A95EAF72093EA001092EA008091EB003E
:107D10008860E2CF91116FCF10917F021F77809121
:107D2000E3008078812B8093E3008091E800877FD7
:107D30008093E800E5DD8091E80080FFFCCF809132
:107D4000E30080688093E30082E0111183E08EBB42
:107D500052CF903809F04FCF8091E800877F809311
:107D6000E80080917B028093F10099CF911143CF7D
:107D700090917F02923008F03ECF8091E800877F9B
:107D80008093E80090937B02BBDD80917B02882387
:107D900011F084E005C08091E30087FDFACF81E017
:107DA0008EBBB8DB28CF0895CF938EB3882391F094
:107DB000C091E900CF708091EC0080FD0DC080E0A3
:107DC000C82B1092E9008091E80083FDEDDECF70B2
:107DD000C093E900CF91089580E8F2CFCF93DF936D
:107DE000EC011B8682E08C83898761E0CE010196DD
:107DF0004BDD882331F061E0CE010696DF91CF9113
:107E000043CD80E0DF91CF9108959B014EB3443084
:107E1000B9F4FC0191819F709093E90050E040E03B
:107E200064E070E0C901ECDB81110BC09091E800C7
:107E300095FD07C09091E8009E779093E800089523
:107E400082E008952EB3243089F4FC0181818F7083
:107E50008093E9009091F3008091F200892B41F02A
:107E60008091E8008E778093E80067CD82E00895E6
:107E700080E00895FC018EB3843051F491819F70AD
:107E80009093E9008091E80080FF02C0CF01DACF33
:107E900008959B014EB3443011F080E00895FC0139
:107EA00096819F709093E9008091E80082FFF5CF62
:107EB0008091E80085FFF1CF50E040E064E070E0A1
:107EC000C901ECDB8091E80085FD05C08091E800E8
:107ED0008B778093E80081E00895F999FECF92BDF9
:0E7EE00081BDF89A992780B50895F894FFCFD8
:107EEE00010000000000000803864000000105406C
:107EFE0000000100120351007500690072006B0052
:107F0E0062006F0074000000040309040902AA0055
:107F1E000401006032080B00020202010009040095
:107F2E0000010202010005240010010424020605CE
:107F3E0024060001070582030800FF090401000260
:107F4E000A00000007050402100005070583021051
:107F5E000005080B020201010000090402000001E5
:107F6E0001000009240100010900010309040300B6
:107F7E000201030000072401000141000624020152
:107F8E00010006240202020009240301030102017A
:107F9E000009240302040101010009050502400045
:107FAE0000000005250101010905860240000000C0
:107FBE0000052501010312010002EF02014086288F
:087FCE0006F0000101020001B0
:087FF80000700000313042511D
:0200000400807A
:02028500000077
:040000030000700089
:00000001FF
