:1070000055C0000093C0000091C000008FC0000078
:107010008DC000008BC0000089C0000087C0000048
:1070200085C0000083C000000FC500007FC00000C5
:107030007DC000007BC0000079C0000077C0000068
:1070400075C0000073C0000071C000006FC0000078
:1070500082C200006BC0000069C0000067C0000071
:1070600065C0000063C0000061C000005FC0000098
:107070005DC000005BC0000059C0000057C00000A8
:1070800055C0000053C0000051C000004FC00000B8
:107090004DC000004BC0000049C0000047C00000C8
:1070A00045C0000043C0000041C0000011241FBEC5
:1070B000CFEFDAE0DEBFCDBF84B714BE81FD21C0C3
:1070C00080FD07C0809177029091780287379747BB
:1070D000C1F4E0E0F0E085919491019691F084B7DD
:1070E000877F84BF88E10FB6F89480936000109288
:1070F00060000FBE1092780210927702E0E0F0E09C
:10710000099511E0A0E0B1E0EAE0FFE702C00590D8
:107110000D92A83EB107D9F722E0A8EEB1E001C078
:107120001D92A737B207E1F784D0EDC669CF84E09E
:107130008093E9008091E80085FD0EC08091E80011
:107140008B778093E8008091E80082FDF3CF8EB3C7
:107150008111F9CF80E008958091F1000895809128
:10716000E80080FD05C08EB38111F9CF81E008955C
:1071700080E00895CF93C82F83E08093E900809149
:10718000E80085FF03C0C093F10008C09091E800BB
:107190009E779093E800E3DF8823A9F3CF910895C9
:1071A00090916802E92FF0E0E851FE4F80839F5FE5
:1071B00090936802903809F03BC0209169023091A9
:1071C0006A0283E0F90180935700E89507B600FC56
:1071D000FDCF80E090E061E0DC01A851BE4FFC01F2
:1071E000E20FF31F11964C91119750E0542F442752
:1071F0007C91472B0A0160935700E8951124029671
:107200008038910549F785E0F90180935700E895AA
:1072100007B600FCFDCF81E180935700E895205828
:107220003F4F30936A0220936902109268020895DA
:107230000895CF93DF9300D000D0CDB7DEB784B7E9
:10724000877F84BF88E10FB6F89480936000109226
:1072500060000FBE90E080E80FB6F8948093610064
:10726000909361000FBE11E015BF82E085BFCFD3C0
:10727000209A289A559A5D9A10936F0083E0809324
:10728000810028985D9A78941EE1F12EEE24E39413
:1072900000E2D02E84E0C82E93E0B92E21E1A22E88
:1072A00080910001882309F4F0C0BE016F5F7F4F19
:1072B00088E091E005D68823D1F1F0920001E3B88F
:1072C000D9B84A8150E09A0120583109359527955F
:1072D000359527951B810C81223039F41092680274
:1072E00010926A021092690222C0233081F4A6E053
:1072F000440F551FAA95E1F7812F8695842B50DF07
:1073000020E8129FC0011124802B4ADF10C02430D6
:1073100019F4109200010BC0211109C0BE016F5F6A
:107320007F4F88E091E087D588E091E0A2D5C092B8
:10733000E9008091E80082FFA3C0F0920001E3B869
:10734000D9B8F5DE182F853419F41092000103C066
:10735000843519F4ECDE8DE075C08035E1F38C34B2
:10736000D1F3843721F484E405DF80E06BC08136FB
:1073700011F489E567C0813499F4D9DE182FD7DE7E
:10738000282F30E0220F331F812F90E0982F88277D
:10739000990F282B392B30936A0220936902DBCF97
:1073A000803711F483E54EC0833571F481E5E2DE68
:1073B00085E5E0DE89E4DEDE82E5DCDE8BE4DADE34
:1073C00082E4D8DE8FE43EC0863521F481E3D2DE4C
:1073D00080E338C0833731F487E8CCDE85E9CADE44
:1073E0008EE130C0823631F489E5C4DE80E0C2DE51
:1073F00080E828C0823411F0873609F598DE97DEE0
:1074000096DE123449F41092680210E090DEC8DE75
:107410001F5F1038D9F79FCFA0925700E89500E082
:1074200010E0E0916902F0916A02E00FF11F84918F
:10743000A1DE0F5F1F4F0038110599F704C08B3193
:1074400011F08FE397DEB092E9008091E8008E772B
:107450008093E8008091E80085FD08C080DE8111FE
:107460000FC08091E8008E778093E80078DE81116C
:1074700007C0C092E9008091E8008B778093E80014
:1074800088E091E010D5A5D40BCF8FEC97E0019761
:10749000F1F700C000008091E00081608093E0007F
:1074A00087E797E790937802809377022CE088E152
:1074B00090E00FB6F894A895809360000FBE2093DB
:1074C0006000FFCF42E061EC82E0C3D142E161E8BD
:1074D00083E0BFD142E160E884E0BBD188E091E085
:1074E00093C480916F02982F9F77913299F5909174
:1074F0007002913229F0923229F1903259F510C080
:10750000813A41F58091E800877F8093E80067E049
:1075100070E081E091E0FFD08091E8008B770FC0B0
:107520008132C1F48091E800877F8093E80067E0B2
:1075300070E081E091E04FD18091E8008E778093F8
:10754000E8000895813231F48091E800877F8093CC
:10755000E800D0C108951F920F920FB60F92112428
:107560002F938F939F93EF93FF9381E083B980E2F2
:1075700089B9E0E0F0E085919491019629F080913D
:107580000001815080930001FF91EF919F918F91B5
:107590002F910F900FBE0F901F901895292F30E05C
:1075A0002230310539F02330310549F021303105E1
:1075B00059F40FC08AEA90E02CE231E018C0882329
:1075C00069F08150823078F080E090E020E030E097
:1075D0000EC082E190E026ED31E009C084E090E049
:1075E00028E231E004C082E190E024E131E0FA01D8
:1075F000318320830895CF92DF92EF92FF920F9311
:107600001F93CF93DF937C018B01EA0192D181110B
:1076100031C0209731F088819981081B190BE80E41
:10762000F91EC12CD12C0115110519F18091E8002A
:1076300085FD14C08091E8008E778093E800C9D35F
:10764000209741F0888199818C0D9D1D99838883B5
:1076500085E010C06ED1882331F30CC0F701819111
:107660007F018093F10001501109FFEFCF1ADF0A6B
:10767000DACF80E0DF91CF911F910F91FF90EF90D3
:10768000DF90CF900895CF92DF92EF92FF920F9309
:107690001F93CF93DF937C018B01EA014AD18111C3
:1076A00031C0209731F088819981081B190BE80EB1
:1076B000F91EC12CD12C0115110519F18091E8009A
:1076C00085FD14C08091E8008B778093E80081D31A
:1076D000209741F0888199818C0D9D1D9983888325
:1076E00085E010C026D1882331F30CC08091F100D1
:1076F000F70181937F0101501109FFEFCF1ADF0AD3
:10770000DACF80E0DF91CF911F910F91FF90EF9042
:10771000DF90CF9008952091750230917602261760
:10772000370748F06115710539F42091E8002E778C
:107730002093E80001C0B901FC0120E0611571054A
:10774000B9F18EB3882309F440C0853009F43FC0F5
:107750008091E80083FD3DC08091E80082FF06C073
:107760008091E80082FF27C080E008958091E800C2
:1077700080FFE4CF2091F3008091F20090E0922B03
:107780006115710551F08034910538F421912093F1
:10779000F100615071090196F3CF21E08034910529
:1077A00009F020E08091E8008E778093E800C6CF52
:1077B0002111C7CFD5CF8EB3882339F0853039F06A
:1077C0008091E80083FFCCCF04C082E0089583E07D
:1077D000089581E008956115710529F42091E8006C
:1077E0002B772093E8006115710531F12EB3222328
:1077F00061F1253061F12091E80023FD22C0209144
:10780000E80022FFF3CFFC01CF014091F30020916B
:10781000F20030E0342B232B09F38091F1008193A7
:10782000CF01615071096115710571F7D7CF8EB322
:10783000882359F0853059F08091E80080FFF7CF18
:1078400002C081E0089580E0089582E0089583E019
:1078500008958F708093E900EBEEF0E08081816005
:107860008083EDEEF0E010826093EC004083809125
:10787000EE00881F8827881F08950F931F93CF93CA
:10788000DF93062FEC0110E0101771F19881992316
:1078900041F12C81E981FA817B81892F8F708730BA
:1078A00010F080E022C0223010F056E001C052E01B
:1078B00028E030E040E02E173F0720F44F5F220F12
:1078C000331FF9CF4295407F452B692F661F6627EE
:1078D000661F90E4799F90011124622BBADF882300
:1078E00001F31F5F2596D0CF81E0DF91CF911F91EB
:1078F0000F91089580916F0287FD05C08091E80087
:1079000080FF0DC010C08091E80082FD04C08EB3DE
:107910008111F9CF08958091E8008B7707C08EB36D
:107920008111ECCF08958091E8008E778093E80074
:1079300008958091E4009091E50045E62091EC00E7
:1079400020FF20C02091E80020FD20C02EB322237C
:1079500089F0253089F02091EB0025FD0FC02091A2
:10796000E4003091E5002817390741F3415041F018
:10797000C901E4CF82E0089583E0089581E008958D
:1079800084E008952091E80022FFE0CF80E0089590
:107990000F931F93CF93DF934AD051D0C8EDD0E01F
:1079A00088818F77888388818068888388818F7DAC
:1079B000888319BC1EBA10926B0210926D0210924D
:1079C0006C0200EE10E0F80180818B7F808388815B
:1079D0008160888342E360E080E03BDFE1EEF0E03D
:1079E00080818E7F8083E2EEF0E080818160808301
:1079F000808188608083F80180818E7F8083888188
:107A000080618883DF91CF911F910F910895E8EDF8
:107A1000F0E080818F7E8083E7EDF0E080818160FF
:107A2000808384E082BF81E080936E02B1CFE8ED75
:107A3000F0E080818E7F80831092E20008951092A2
:107A4000DA001092E10008951F920F920FB60F9284
:107A500011242F933F934F935F936F937F938F9353
:107A60009F93AF93BF93EF93FF938091DA0080FFD2
:107A700019C08091D80080FF15C08091DA008E7FF8
:107A80008093DA008091D90019BC80FF09C082E0A0
:107A900089BD09B400FEFDCF81E08EBB99D102C043
:107AA0001EBA96D18091E10080FF17C08091E2005C
:107AB00080FF13C08091E2008E7F8093E20080916E
:107AC000E20080618093E2008091D8008062809320
:107AD000D80019BC85E08EBB7BD18091E10084FF8A
:107AE0002DC08091E20084FF29C019BC82E089BDCD
:107AF00009B400FEFDCF8091D8008F7D8093D8001F
:107B00008091E1008F7E8093E1008091E2008F7E82
:107B10008093E2008091E20081608093E200809196
:107B20006B02882311F084E007C08091E30087FF97
:107B300002C083E001C081E08EBB4AD18091E100A8
:107B400083FF21C08091E20083FF1DC08091E1008E
:107B5000877F8093E10082E08EBB10926B02809160
:107B6000E1008E7F8093E1008091E2008E7F809320
:107B7000E2008091E20080618093E20042E360E0F5
:107B800080E067DE25D1FF91EF91BF91AF919F918A
:107B90008F917F916F915F914F913F912F910F90B6
:107BA0000FBE0F901F9018951F93CF93DF9300D0B7
:107BB000CDB7DEB7EFE6F2E08091F100819382E08D
:107BC000E737F807C9F78DDC8091E80083FFECC048
:107BD00090916F0280917002853009F477C030F483
:107BE000813081F168F0833069F1DEC0883009F4BA
:107BF000AEC0893009F4BDC0863009F0D5C087C059
:107C0000903881F0923809F0CFC0809173028F7064
:107C10008093E9008091EB0085FB882780F9109222
:107C2000E90006C080916C0290916D029111826012
:107C30009091E800977F9093E8008093F100109274
:107C4000F10090C0292F2D7F09F0AEC0992319F0C3
:107C5000923061F0A9C090917102913009F0A4C0F6
:107C6000833009F090E090936D022AC090917102E8
:107C7000911126C0209173022F7009F495C02093B2
:107C8000E9009091EB0090FF1BC0833021F48091BC
:107C9000EB00806213C08091EB0080618093EB0069
:107CA00081E090E0022E01C0880F0A94EAF78093E9
:107CB000EA001092EA008091EB0088608093EB006C
:107CC0001092E9008091E800877F4FC091116CC04D
:107CD000109171021F778091E3008078812B80934F
:107CE000E3008091E800877F8093E80003DE8091C5
:107CF000E80080FFFCCF8091E30080688093E30080
:107D0000112311F083E001C082E08EBB4DC090587A
:107D1000923008F049C0AE014F5F5F4F609173022F
:107D2000809171029091720239DC009709F43CC095
:107D30002091E800277F2093E800BC0189819A8187
:107D4000EADC8091E8008B778093E8002DC09038C2
:107D500059F58091E800877F8093E80080916B025D
:107D60008093F1008091E8008E778093E800C2DD77
:107D70001BC0911119C0909171029230A8F48091AA
:107D8000E800877F8093E80090936B02B3DD8091D9
:107D90006B02811104C08091E30087FF02C084E080
:107DA00001C081E08EBB8EDB8091E80083FF0AC0BA
:107DB0008091E800877F8093E8008091EB008062EB
:107DC0008093EB000F900F90DF91CF911F9108955A
:107DD0000895CF938EB38823A9F08091E9008F7026
:107DE0009091EC0090FF02C090E801C090E0C92F94
:107DF000C82B1092E9008091E80083FDD5DECF709A
:107E0000C093E900CF910895CF93DF93EC011B86D7
:107E100082E08C83898761E0CE0101962EDD882384
:107E200031F061E0CE010696DF91CF9126CD80E062
:107E3000DF91CF910895FC01CB012EB32430A9F43A
:107E400021812F702093E90040E050E064E070E071
:107E5000D2DB81110DC08091E80085FD08C08091C2
:107E6000E8008E778093E80002C082E0089580E009
:107E700008952EB3243099F4FC0181818F70809392
:107E8000E9002091F3008091F20090E0922B892B81
:107E900041F08091E8008E778093E8004ACD82E03F
:107EA000089580E008952EB3243049F4FC01218127
:107EB0002F702093E9002091E80020FDDACF08958B
:107EC000FC01CB012EB3243011F080E0089526810F
:107ED0002F702093E9002091E80022FFF6CF209137
:107EE000E80025FFF2CF40E050E064E070E0CBDB3B
:107EF0008091E80085FD05C08091E8008B77809334
:0A7F0000E80081E00895F894FFCF37
:107F0A001E0000000000000803824000000101403A
:107F1A0000000100120351007500690072006B0035
:107F2A0062006F0074000000040309040902AA0039
:107F3A000401006032080B00020202010009040079
:107F4A0000010202010005240010010424020605B2
:107F5A0024060001070582030800FF090401000244
:107F6A000A00000007050402100005070583021035
:107F7A000005080B020201010000090402000001C9
:107F8A00010000092401000109000103090403009A
:107F9A000201030000072401000141000624020136
:107FAA00010006240202020009240301030102015E
:107FBA00000924030204010101000905010240002D
:107FCA0000000005250101010905820240000000A8
:107FDA0000052501010312010002EF020140862873
:087FEA0005F000010102000195
:087FF80000700000010042517D
:040000030000700089
:00000001FF
