:1070000055C000009BC0000099C0000097C0000060
:1070100095C0000093C0000091C000008FC0000028
:107020008DC000008BC000004AC5000087C0000072
:1070300085C0000083C0000081C000007FC0000048
:107040007DC000007BC0000079C0000077C0000058
:1070500024C3000073C0000071C000006FC00000B6
:107060006DC000006BC0000069C0000067C0000078
:1070700065C0000063C0000061C000005FC0000088
:107080005DC000005BC0000059C0000057C0000098
:1070900055C0000053C0000051C000004FC00000A8
:1070A0004DC000004BC0000049C0000011241FBEAD
:1070B000CFEFDAE0DEBFCDBF84B714BE81FD0CC0D8
:1070C00080FD0CC021E08091FC019091FD0187378B
:1070D000974729F020E003C020E001C021E0E0E074
:1070E000F0E0859194912223A1F0019691F084B76C
:1070F000877F84BF88E10FB6F89480936000109278
:1071000060000FBE1092FD011092FC01E0E0F0E083
:10711000099511E0A0E0B1E0EEEAFEE702C00590BB
:107120000D92AC3EB107D9F721E0ACEEB1E001C061
:107130001D92AC3FB207E1F731D0B7C661CF84E012
:107140008093E9008091E80085FD0EC08091E80001
:107150008B778093E8008091E80082FDF3CF8EB3B7
:107160008111F9CF80E008958091F100089593E0B6
:107170009093E9009091E80095FF03C08093F1009F
:1071800008959091E8009E779093E8009091E80030
:1071900090FDF4CF9EB39111F9CF0895CF93DF9373
:1071A00000D01F92CDB7DEB784B7877F84BF88E158
:1071B0000FB6F89480936000109260000FBE90E0CC
:1071C00080E80FB6F89480936100909361000FBE41
:1071D00011E015BF82E085BF55D4209A289A559AB0
:1071E0005D9A10936F0083E08093810028985D9AE8
:1071F0007894A3E07A2E01E0B5E06B2E212C312C9F
:1072000080910001882309F42BC284E08093E90077
:107210008091E80082FF22C292DF982F853419F412
:107220001092000190C1803509F48DC18C3409F4AD
:107230008AC1843729F484E49ADF80E098DFE6C1CC
:10724000813611F489E5FACF813491F478DF182F73
:1072500076DF90E0880F991F212F30E0322F222710
:10726000330F822B932BAA2797FDA095BA2FA2C18B
:10727000803711F483E5E2CF833571F474EEE72EA5
:1072800071E0F72EF70181917F0171DFFBEEEF16C0
:10729000F1E0FF06B9F7BAC1863521F481E367DF73
:1072A00080E3CCCF833731F487E861DF85E95FDFA6
:1072B0008EE1C4CF8536A9F4E0E0F0E0709257008B
:1072C000E89507B600FCFDCF60925700E89507B639
:1072D00000FCFDCFE058FF4FE11580E7F80771F79C
:1072E00032C18C3651F42BDF809599E0E1E0F0E07B
:1072F000082E90935700E89526C1823721F489E043
:10730000E1E0F0E010C0863419F489E0F1010BC02F
:107310008E3421F489E0E3E0F0E005C0813539F4F2
:1073200089E0E2E0F0E080935700849187CF8236D5
:1073300031F489E51CDF80E01ADF80E87FCF8234FA
:1073400019F0873609F0D0C09983F9DE882E912C88
:10735000982C8824F4DE882AF2DE182F8BEB810F1C
:107360009981823010F08FE369CF973609F046C0DB
:1073700081E180935700E895B12C8114910409F4C0
:1073800045C1C090EC01D090ED01E090EE01F0908D
:10739000EF011634D1F4EB2DF0E0EC29FD298491B6
:1073A000E6DEBB2069F0F2E0CF0ED11CE11CF11C3F
:1073B000C092EC01D092ED01E092EE01F092EF016B
:1073C00081E0B11080E0B82E15C0D701C601B69596
:1073D000A7959795879553D5CADE82E0C80ED11C34
:1073E000E11CF11CC092EC01D092ED01E092EE01A3
:1073F000F092EF0191E0891A9108BFCFC090EC01A3
:10740000D090ED01E090EE01F090EF01163429F0FC
:107410009B828A82412C512C31C0F6017092570018
:10742000E89507B600FCFDCFF3CF163479F555206B
:1074300051F18090EC019090ED01A090EE01B090A0
:10744000EF017DDE242D30E0382BF401090100939B
:107450005700E8951124F2E08F0E911CA11CB11C7D
:107460008092EC019092ED01A092EE01B092EF01BA
:1074700050268A819B8101979B838A83EA81FB81C5
:10748000EF2B99F626C05BDE482EF2CF58DE682F30
:107490008091EC019091ED01A091EE01B091EF018E
:1074A000B695A79597958795F2D48091EC01909128
:1074B000ED01A091EE01B091EF010296A11DB11D69
:1074C0008093EC019093ED01A093EE01B093EF0156
:1074D000D0CF163409F037C0F60160925700E89516
:1074E00007B600FCFDCF2FC0833469F4E090EC01B7
:1074F000F090ED0124DE90E0F7010C0100935700BD
:10750000E895112420C0833601F5C090EC01D0909D
:10751000ED01E090EE01F090EF0111DEF601E16087
:1075200090E00C0100935700E8951124F2E0CF0E93
:10753000D11CE11CF11CC092EC01D092ED01E09253
:10754000EE01F092EF018DE079CE8D3659F4E091A5
:10755000EC01F091ED0160925700E89507B600FC50
:10756000FDCFF1CF823551F4E091EC01F091ED01C6
:10757000E590F4908F2DFBDD8E2D60CE843419F5CF
:10758000DEDD682F8091EC019091ED01A091EE017C
:10759000B091EF01B695A7959795879578D480918E
:1075A000EC019091ED01A091EE01B091EF010296F6
:1075B000A11DB11D8093EC019093ED01A093EE010C
:1075C000B093EF01C0CF8436F1F4C090EC01D090BD
:1075D000ED01E090EE01F090EF01D701C601B69504
:1075E000A795979587954BD4C2DD82E0C80ED11C34
:1075F000E11CF11CC092EC01D092ED01E092EE0191
:10760000F092EF0103C08B3109F0ADCE7092E9002A
:107610009091E8008091E8008E778093E80095FDD6
:1076200011C08091E80080FD04C08EB38111F9CFB4
:1076300015C08091E8008E778093E80003C08EB378
:10764000882361F08091E80080FFF9CF84E0809387
:10765000E9008091E8008B778093E800F5D3D0CDE6
:10766000EFECF7E03197F1F700C000008091E00007
:1076700081608093E00087E797E79093FD01809316
:10768000FC012CE088E190E00FB6F894A895809377
:1076900060000FBE20936000FFCF1F920F920FB6C5
:1076A0000F9211248F9381E083B980E289B98F9181
:1076B0000F900FBE0F901F90189542E061EC82E092
:1076C0006FD142E161E883E06BD142E160E884E0A0
:1076D00067C18091F4018F77813209F03DC081E06C
:1076E00083B980E289B98091F501813229F0823233
:1076F00049F1803289F512C08091F401813A61F537
:107700008091E800877F8093E80067E070E081E087
:1077100091E0A8D08091E8008B7711C08091F401AE
:107720008132D1F48091E800877F8093E80067E0A0
:1077300070E081E091E0F6D08091E8008E77809350
:10774000E80008958091F401813231F48091E800DD
:10775000877F8093E80038C10895292F30E02230D8
:10776000310539F02330310549F02130310561F41C
:1077700010C08AEA90E028E231E01EC0882371F050
:10778000813089F08230A1F080E090E020E030E0AC
:1077900013C082E190E022ED31E00EC084E090E081
:1077A00024E231E009C086E090E02CE131E004C041
:1077B00082E190E028E031E0FA01318320830895EE
:1077C00007B600FCFDCFF999FECF23E0FB01209323
:1077D0005700E89507B600FCFDCF81E18093570084
:1077E000E895089507B600FCFDCFF999FECF25E096
:1077F000FB0120935700E89507B600FCFDCF81E11F
:1078000080935700E895089507B600FCFDCFF999DD
:10781000FECF21E0FB010A0120935700E8951124D7
:10782000089521E2FC01209357008491089529E0F6
:10783000FC012093570084910895E1E0F0E089E095
:10784000809357008491089507B600FCFDCFF99905
:10785000FECF809599E0E1E0F0E0082E909357008C
:10786000E89508952091FA013091FB01261737071A
:1078700048F06115710539F42091E8002E772093C6
:10788000E80001C0B901FC0120E061157105B9F102
:107890008EB3882309F440C0853009F43FC080913D
:1078A000E80083FD3DC08091E80082FF06C0809122
:1078B000E80082FF27C080E008958091E80080FF03
:1078C000E4CF2091F3008091F20090E0922B6115BB
:1078D000710551F08034910538F421912093F10025
:1078E000615071090196F3CF21E08034910509F0D0
:1078F00020E08091E8008E778093E800C6CF2111C8
:10790000C7CFD5CF8EB3882339F0853039F0809139
:10791000E80083FFCCCF04C082E0089583E008959F
:1079200081E008956115710529F42091E8002B7715
:107930002093E8006115710531F12EB3222361F126
:10794000253061F12091E80023FD22C02091E8005C
:1079500022FFF3CFFC01CF014091F3002091F20010
:1079600030E0342B232B09F38091F1008193CF0178
:10797000615071096115710571F7D7CF8EB38823F6
:1079800059F0853059F08091E80080FFF7CF02C0B0
:1079900081E0089580E0089582E0089583E00895ED
:1079A0008F708093E900EBEEF0E08081816080834E
:1079B000EDEEF0E010826093EC0040838091EE00E9
:1079C000881F8827881F08958091F40187FD05C0CE
:1079D0008091E80080FF0DC010C08091E80082FD1A
:1079E00004C08EB38111F9CF08958091E8008B77A0
:1079F00007C08EB38111ECCF08958091E8008E7797
:107A00008093E80008950F931F93CF93DF934AD09C
:107A100051D0C8EDD0E088818F77888388818068D5
:107A2000888388818F7D888319BC1EBA1092F001EB
:107A30001092F2011092F10100EE10E0F801808145
:107A40008B7F808388818160888342E360E080E06F
:107A5000A7DFE1EEF0E080818E7F8083E2EEF0E050
:107A6000808181608083808188608083F80180814B
:107A70008E7F8083888180618883DF91CF911F9181
:107A80000F910895E8EDF0E080818F7E8083E7ED2F
:107A9000F0E080818160808384E082BF81E0809318
:107AA000F301B1CFE8EDF0E080818E7F808310920A
:107AB000E20008951092DA001092E10008951F92FA
:107AC0000F920FB60F9211242F933F934F935F9312
:107AD0006F937F938F939F93AF93BF93EF93FF9396
:107AE0008091DA0080FF19C08091D80080FF15C016
:107AF0008091DA008E7F8093DA008091D90019BCE2
:107B000080FF09C082E089BD09B400FEFDCF81E09D
:107B10008EBB99D102C01EBA96D18091E10080FF40
:107B200017C08091E20080FF13C08091E2008E7F39
:107B30008093E2008091E20080618093E200809176
:107B4000D80080628093D80019BC85E08EBB7BD1C1
:107B50008091E10084FF2DC08091E20084FF29C064
:107B600019BC82E089BD09B400FEFDCF8091D80028
:107B70008F7D8093D8008091E1008F7E8093E1001B
:107B80008091E2008F7E8093E2008091E20081602C
:107B90008093E2008091F001882311F084E007C017
:107BA0008091E30087FF02C083E001C081E08EBBCB
:107BB0004AD18091E10083FF21C08091E20083FFE0
:107BC0001DC08091E100877F8093E10082E08EBB41
:107BD0001092F0018091E1008E7F8093E10080910E
:107BE000E2008E7F8093E2008091E20080618093CA
:107BF000E20042E360E080E0D3DE25D1FF91EF9127
:107C0000BF91AF919F918F917F916F915F914F91B4
:107C10003F912F910F900FBE0F901F9018951F93BB
:107C2000CF93DF9300D0CDB7DEB7E4EFF1E08091E2
:107C3000F100819381E0EC3FF807C9F74ADD8091BC
:107C4000E80083FFECC09091F4018091F50185304C
:107C500009F477C030F4813081F168F0833069F144
:107C6000DEC0883009F4AEC0893009F4BDC086306A
:107C700009F0D5C087C0903881F0923809F0CFC0A4
:107C80008091F8018F708093E9008091EB0085FB73
:107C9000882780F91092E90006C08091F101909147
:107CA000F201911182609091E800977F9093E80033
:107CB0008093F1001092F10090C0292F2D7F09F0E0
:107CC000AEC0992319F0923061F0A9C09091F601ED
:107CD000913009F0A4C0833009F090E09093F20154
:107CE0002AC09091F601911126C02091F8012F70C1
:107CF00009F495C02093E9009091EB0090FF1BC020
:107D0000833021F48091EB00806213C08091EB00FE
:107D100080618093EB0081E090E0022E01C0880F2B
:107D20000A94EAF78093EA001092EA008091EB004F
:107D300088608093EB001092E9008091E800877FD3
:107D40004FC091116CC01091F6011F778091E30034
:107D50008078812B8093E3008091E800877F809377
:107D6000E80032DE8091E80080FFFCCF8091E300E4
:107D700080688093E300112311F083E001C082E06A
:107D80008EBB4DC09058923008F049C0AE014F5F95
:107D90005F4F6091F8018091F6019091F701DDDC71
:107DA000009709F43CC02091E800277F2093E80069
:107DB000BC0189819A8156DD8091E8008B778093A0
:107DC000E8002DC0903859F58091E800877F8093B6
:107DD000E8008091F0018093F1008091E8008E77B7
:107DE0008093E800F1DD1BC0911119C09091F6015C
:107DF0009230A8F48091E800877F8093E800909308
:107E0000F001E2DD8091F001811104C08091E30076
:107E100087FF02C084E001C081E08EBB4EDC809110
:107E2000E80083FF0AC08091E800877F8093E80024
:107E30008091EB0080628093EB000F900F90DF91B8
:107E4000CF911F9108950895CF938EB38823A9F001
:107E50008091E9008F709091EC0090FF02C090E853
:107E600001C090E0C92FC82B1092E9008091E80072
:107E700083FDD5DECF70C093E900CF910895F999C5
:107E8000FECF92BD81BDF89A992780B50895262F1F
:107E9000F999FECF1FBA92BD81BD20BD0FB6F894EF
:0E7EA000FA9AF99A0FBE01960895F894FFCF52
:107EAE00010000000000004012035100750069003F
:107EBE0072006B0062006F00740000000603510038
:107ECE0042000000040309040902AA000201006036
:107EDE0032080B0002020201000904000001020236
:107EEE0001000524001001042402060524060001E9
:107EFE00070582030800FF09040100020A000000C2
:107F0E000705040210000507058302100005080B83
:107F1E000202010100000904020000010100000933
:107F2E0024010001090001030904030002010300FA
:107F3E00000724010001410006240201010006246D
:107F4E0002020200092403010301020100092403B5
:107F5E0002040101010009050502400005000005AB
:107F6E0025010101090584024000050000052501D7
:107F7E0001031201000202020140862805F00001F1
:0C7F8E0001020001515549524B424F00C6
:107FA0000FCC20CC31CC3DCC42CC47CC4DCC08952D
:087FB000089508950895089555
:107FE000DFCFDFCFDFCFDFCFDFCFDFCFDFCFDFCF21
:087FF000DFCFDFCFDFCFDFCFD1
:087FF8000070000000DFFBDC5B
:040000030000700089
:00000001FF
