:1070000055C0000095C0000093C0000091C0000072
:107010008FC000008DC000008BC0000089C0000040
:1070200087C0000085C0000024C5000081C00000AA
:107030007FC000007DC000007BC0000079C0000060
:1070400077C0000075C0000073C0000071C0000070
:10705000BEC200006DC000006BC0000069C000002F
:1070600067C0000065C0000063C0000061C0000090
:107070005FC000005DC000005BC0000059C00000A0
:1070800057C0000055C0000053C0000051C00000B0
:107090004FC000004DC000004BC0000049C00000C0
:1070A00047C0000045C0000043C0000011241FBEBF
:1070B000CFEFDAE0DEBFCDBF84B714BE81FD23C0C1
:1070C00080FD1BC08091FC019091FD01873797479F
:1070D000D1F413C084B7877F84BF88E10FB6F894DA
:1070E00080936000109260000FBE1092FD0110921C
:1070F000FC01E0E0F0E0099506C0E0E0F0E08591F9
:107100009491019639F711E0A0E0B1E0E0E9FEE7E3
:1071100002C005900D92AC3EB107D9F721E0ACEE6C
:10712000B1E001C01D92AC3FB207E1F731D0AEC66D
:1071300067CF84E08093E9008091E80085FD0EC070
:107140008091E8008B778093E8008091E80082FDD1
:10715000F3CF8EB38111F9CF80E008958091F100D3
:10716000089593E09093E9009091E80095FF03C0A3
:107170008093F10008959091E8009E779093E80045
:107180009091E80090FDF4CF9EB39111F9CF08954E
:10719000CF93DF9300D01F92CDB7DEB784B7877F40
:1071A00084BF88E10FB6F89480936000109260006D
:1071B0000FBE90E080E80FB6F89480936100909342
:1071C00061000FBE11E015BF82E085BF35D4209A63
:1071D000289A559A5D9A10936F0083E080938100FE
:1071E00028985D9A7894E5E04E2EF9E07F2E212CC8
:1071F000312C80910001882309F4CCC184E0809374
:10720000E9008091E80082FFC3C193DF982F8534A5
:1072100019F41092000107C088E8890F823010F03D
:10722000943521F486DF8DE09CDF89C19035D9F358
:107230009C34C9F3943721F484E493DF80E0F4CFE5
:10724000913611F489E5F0CF9134D1F472DF082F33
:1072500070DF90E0880F991F202F30E0322F222717
:10726000330F822B932BAA2797FDA095BA2F8093DB
:10727000EC019093ED01A093EE01B093EF01D3CF19
:10728000903711F483E5D0CF933571F454EEE52EA9
:1072900051E0F52EF70181917F0163DFFBEEEF16E0
:1072A000F1E0FF06B9F74BC1963521F481E359DFD0
:1072B00080E3BACF933731F487E853DF85E951DFB4
:1072C0008EE1B2CF923719F4E1E0F0E00DC09634D0
:1072D00011F4F10109C09E3419F4E3E0F0E004C0B8
:1072E000913531F4E2E0F0E07092570084919CCF48
:1072F000923631F489E535DF80E033DF80E894CFE2
:10730000923419F0973609F0CEC0998312DF882E97
:10731000912C982C88240DDF882A0BDF082F8BEB0B
:10732000800F9981823010F08FE37ECF973609F07D
:1073300043C0F1E1F0935700E895B12C811491041A
:1073400009F4FDC0C090EC01D090ED01E090EE0199
:10735000F090EF010634B9F4EB2DF0E0EC29FD29B3
:107360008491FFDEBB2069F082E0C80ED11CE11CD5
:10737000F11CC092EC01D092ED01E092EE01F0928E
:10738000EF01B12615C0D701C601B695A79597950F
:10739000879566D5E6DE92E0C90ED11CE11CF11C92
:1073A000C092EC01D092ED01E092EE01F092EF017B
:1073B000E1E08E1A9108C2CFC090EC01D090ED01AF
:1073C000E090EE01F090EF01063429F09B828A8272
:1073D000512C612C32C083E0F60180935700E89570
:1073E00007B600FCFDCFF2CF063479F5662051F1E7
:1073F0008090EC019090ED01A090EE01B090EF0133
:1074000098DE252D30E0382BF40109011093570048
:10741000E8951124F2E08F0E911CA11CB11C809202
:10742000EC019092ED01A092EE01B092EF01612685
:107430008A819B8101979B838A83EA81FB81EF2B61
:1074400099F626C076DE582EF2CF73DE682F809133
:10745000EC019091ED01A091EE01B091EF01B69594
:10746000A7959795879504D58091EC019091ED01B2
:10747000A091EE01B091EF010296A11DB11D809384
:10748000EC019093ED01A093EE01B093EF01D0CF0A
:10749000063409F0C8CEF60140925700E89507B6C9
:1074A00000FCFDCFC0CE933469F4E090EC01F09085
:1074B000ED013FDE90E0F7010C0110935700E895D5
:1074C0001124B1CE9336F9F4C090EC01D090ED01C7
:1074D000E090EE01F090EF012CDEF601E16090E02B
:1074E0000C0110935700E8951124F2E0CF0ED11C47
:1074F000E11CF11CC092EC01D092ED01E092EE0192
:10750000F092EF0190CE9D3659F4E091EC01F091AC
:10751000ED0140925700E89507B600FCFDCF83CE01
:10752000923551F4E091EC01F091ED01E590F49089
:107530008F2D17DE8E2D78CE9B3109F0F5CE83E0AE
:107540008093E9009091E8008091E8008E77809325
:10755000E80095FD11C08091E80080FD04C08EB365
:107560008111F9CF15C08091E8008E778093E800F3
:1075700003C08EB3882361F08091E80080FFF9CFCB
:1075800094E09093E9008091E8008B778093E80085
:1075900035D42FCEEFECF7E03197F1F700C00000C3
:1075A0008091E00081608093E00087E797E7909307
:1075B000FD018093FC012CE088E190E00FB6F89487
:1075C000A895809360000FBE20936000FFCF1F92AC
:1075D0000F920FB60F9211248F9381E083B980E24E
:1075E00089B98F910F900FBE0F901F90189542E0B0
:1075F00061EC82E072D142E161E883E06ED142E168
:1076000060E884E06AD188E091E013C48091F401DD
:107610008F77813209F03DC081E083B980E289B97A
:107620008091F501813229F0823249F1803289F569
:1076300012C08091F401813A61F58091E800877F62
:107640008093E80067E070E081E091E0A8D080914D
:10765000E8008B7711C08091F4018132D1F48091E0
:10766000E800877F8093E80067E070E081E091E0C8
:10767000F6D08091E8008E778093E800089580919D
:10768000F401813231F48091E800877F8093E80033
:1076900075C10895292F30E02230310539F02330AB
:1076A000310549F02130310561F410C08AEA90E0DB
:1076B00028E231E01EC0882371F0813089F08230E9
:1076C000A1F080E090E020E030E013C082E190E0A3
:1076D00022ED31E00EC084E090E024E231E009C008
:1076E00086E090E02CE131E004C086E090E024E107
:1076F00031E0FA0131832083089507B600FCFDCF05
:10770000F999FECF23E0FB0120935700E89507B6D7
:1077100000FCFDCF81E180935700E895089507B6FE
:1077200000FCFDCFF999FECF25E0FB012093570027
:10773000E89507B600FCFDCF81E180935700E895FE
:10774000089507B600FCFDCFF999FECF21E0FB01BB
:107750000A0120935700E8951124089521E2FC01C5
:10776000209357008491089529E0FC01209357004D
:1077700084910895E1E0F0E089E0809357008491DE
:10778000089507B600FCFDCFF999FECF809599E0EA
:10779000E1E0F0E0082E90935700E89508952091DD
:1077A000FA013091FB012617370748F06115710582
:1077B00039F42091E8002E772093E80001C0B90148
:1077C000FC0120E061157105B9F18EB3882309F43D
:1077D00040C0853009F43FC08091E80083FD3DC082
:1077E0008091E80082FF06C08091E80082FF27C0F8
:1077F00080E008958091E80080FFE4CF2091F300BD
:107800008091F20090E0922B6115710551F0803467
:10781000910538F421912093F1006150710901968E
:10782000F3CF21E08034910509F020E08091E80059
:107830008E778093E800C6CF2111C7CFD5CF8EB306
:10784000882339F0853039F08091E80083FFCCCF70
:1078500004C082E0089583E0089581E008956115F1
:10786000710529F42091E8002B772093E800611539
:10787000710531F12EB3222361F1253061F12091A0
:10788000E80023FD22C02091E80022FFF3CFFC0195
:10789000CF014091F3002091F20030E0342B232BF4
:1078A00009F38091F1008193CF0161507109611555
:1078B000710571F7D7CF8EB3882359F0853059F011
:1078C0008091E80080FFF7CF02C081E0089580E05A
:1078D000089582E0089583E008958F708093E90011
:1078E000EBEEF0E0808181608083EDEEF0E01082CD
:1078F0006093EC0040838091EE00881F8827881FEA
:1079000008950F931F93CF93DF93062FEC0110E0A0
:10791000101771F19881992341F12C81E981FA8145
:107920007B81892F8F70873010F080E022C0223059
:1079300010F056E001C052E028E030E040E02E17A1
:107940003F0720F44F5F220F331FF9CF4295407F4E
:10795000452B692F661F6627661F90E4799F90016B
:107960001124622BBADF882301F31F5F2596D0CF45
:1079700081E0DF91CF911F910F9108958091F401E3
:1079800087FD05C08091E80080FF0DC010C0809188
:10799000E80082FD04C08EB38111F9CF0895809173
:1079A000E8008B7707C08EB38111ECCF08958091EA
:1079B000E8008E778093E80008950F931F93CF938C
:1079C000DF934AD051D0C8EDD0E088818F7788838B
:1079D00088818068888388818F7D888319BC1EBADE
:1079E0001092F0011092F2011092F10100EE10E0FD
:1079F000F80180818B7F808388818160888342E366
:107A000060E080E06ADFE1EEF0E080818E7F8083DD
:107A1000E2EEF0E0808181608083808188608083F5
:107A2000F80180818E7F8083888180618883DF91E7
:107A3000CF911F910F910895E8EDF0E080818F7E46
:107A40008083E7EDF0E080818160808384E082BF05
:107A500081E08093F301B1CFE8EDF0E080818E7F8B
:107A600080831092E20008951092DA001092E100F3
:107A700008951F920F920FB60F9211242F933F93E8
:107A80004F935F936F937F938F939F93AF93BF9326
:107A9000EF93FF938091DA0080FF19C08091D800A6
:107AA00080FF15C08091DA008E7F8093DA0080918C
:107AB000D90019BC80FF09C082E089BD09B400FE6D
:107AC000FDCF81E08EBB99D102C01EBA96D18091C4
:107AD000E10080FF17C08091E20080FF13C0809119
:107AE000E2008E7F8093E2008091E20080618093CB
:107AF000E2008091D80080628093D80019BC85E0B4
:107B00008EBB7BD18091E10084FF2DC08091E2008B
:107B100084FF29C019BC82E089BD09B400FEFDCFF5
:107B20008091D8008F7D8093D8008091E1008F7E76
:107B30008093E1008091E2008F7E8093E20080914B
:107B4000E20081608093E2008091F001882311F0CF
:107B500084E007C08091E30087FF02C083E001C09A
:107B600081E08EBB4AD18091E10083FF21C08091EA
:107B7000E20083FF1DC08091E100877F8093E100D8
:107B800082E08EBB1092F0018091E1008E7F8093A5
:107B9000E1008091E2008E7F8093E2008091E2001C
:107BA00080618093E20042E360E080E096DE25D1D0
:107BB000FF91EF91BF91AF919F918F917F916F91C5
:107BC0005F914F913F912F910F900FBE0F901F909B
:107BD00018951F93CF93DF9300D0CDB7DEB7E4EFB6
:107BE000F1E08091F100819381E0EC3FF807C9F763
:107BF0000DDD8091E80083FFECC09091F40180914D
:107C0000F501853009F477C030F4813081F168F0F6
:107C1000833069F1DEC0883009F4AEC0893009F4E0
:107C2000BDC0863009F0D5C087C0903881F0923849
:107C300009F0CFC08091F8018F708093E9008091A6
:107C4000EB0085FB882780F91092E90006C080913F
:107C5000F1019091F201911182609091E800977F7B
:107C60009093E8008093F1001092F10090C0292FCA
:107C70002D7F09F0AEC0992319F0923061F0A9C0B0
:107C80009091F601913009F0A4C0833009F090E0A2
:107C90009093F2012AC09091F601911126C0209193
:107CA000F8012F7009F495C02093E9009091EB0042
:107CB00090FF1BC0833021F48091EB00806213C0E1
:107CC0008091EB0080618093EB0081E090E0022ED8
:107CD00001C0880F0A94EAF78093EA001092EA0044
:107CE0008091EB0088608093EB001092E900809116
:107CF000E800877F4FC091116CC01091F6011F778B
:107D00008091E3008078812B8093E3008091E800EC
:107D1000877F8093E80032DE8091E80080FFFCCF0F
:107D20008091E30080688093E300112311F083E0E9
:107D300001C082E08EBB4DC09058923008F049C01F
:107D4000AE014F5F5F4F6091F8018091F601909115
:107D5000F701A0DC009709F43CC02091E800277FE0
:107D60002093E800BC0189819A8119DD8091E800A7
:107D70008B778093E8002DC0903859F58091E8000A
:107D8000877F8093E8008091F0018093F1008091DB
:107D9000E8008E778093E800F1DD1BC0911119C0D7
:107DA0009091F6019230A8F48091E800877F80934B
:107DB000E8009093F001E2DD8091F001811104C0B0
:107DC0008091E30087FF02C084E001C081E08EBBA8
:107DD0000EDC8091E80083FF0AC08091E800877F75
:107DE0008093E8008091EB0080628093EB000F901D
:107DF0000F90DF91CF911F9108950895CF938EB387
:107E00008823A9F08091E9008F709091EC0090FF99
:107E100002C090E801C090E0C92FC82B1092E90081
:107E20008091E80083FDD5DECF70C093E900CF914B
:107E30000895CF93DF93EC011B8682E08C838987C2
:107E400061E0CE0101965DDD882331F061E0CE0175
:107E50000696DF91CF9155CD80E0DF91CF910895C7
:107E6000F999FECF92BD81BDF89A992780B5089502
:107E7000262FF999FECF1FBA92BD81BD20BD0FB646
:107E8000F894FA9AF99A0FBE01960895F894FFCFE4
:107E900001000000000000080382400000010140D2
:107EA00000000100060351004200000006035100DB
:107EB00042000000040309040902AA000401006052
:107EC00032080B0002020201000904000001020254
:107ED0000100052400100104240206052406000107
:107EE000070582030800FF09040100020A000000E0
:107EF0000705040210000507058302100005080BA2
:107F00000202010100000904020000010100000951
:107F10002401000109000103090403000201030018
:107F2000000724010001410006240201010006248B
:107F300002020200092403010301020100092403D3
:107F400002040101010009050102400005000005CD
:107F500025010101090582024000050000052501F7
:107F600001031201000202020140862805F000010F
:0C7F700001020001515549524B424F00E4
:107FA000ACCBBDCBCECBDACBDFCBE4CBEACB0895E9
:087FB000089508950895089555
:107FE000DFCFDFCFDFCFDFCFDFCFDFCFDFCFDFCF21
:087FF000DFCFDFCFDFCFDFCFD1
:087FF8000070000000DFFBDC5B
:040000030000700089
:00000001FF
