:107000005FC0000078C0000076C0000074C00000BF
:1070100072C0000070C000006EC000006CC00000B4
:107020006AC0000068C00000CEC4000064C0000058
:1070300062C0000060C000005EC000005CC00000D4
:107040005AC00000E9C0000056C0000054C0000053
:1070500052C0000050C000004EC000004CC00000F4
:107060004AC0000048C0000046C0000044C0000004
:1070700042C0000040C000003EC000003CC0000014
:107080003AC0000038C0000036C0000034C0000024
:1070900032C0000030C000002EC000002CC0000034
:1070A0002AC0000028C0000026C000004B3E643EFD
:1070B000083F643E083F993EBB3E083FDB3EED3E45
:1070C00011241FBECFEFDAE0DEBFCDBF11E0A0E09C
:1070D000B1E0EAE9FEE702C005900D92A639B107DA
:1070E000D9F721E0A6E9B1E001C01D92AC3AB207A0
:1070F000E1F763D3D0C684CF84E08093E900809128
:10710000E80085FD0EC08091E8008B778093E80051
:107110008091E80082FDF3CF8EB38111F9CF80E03A
:1071200008958091F100089593E09093E900909183
:10713000E80095FF0AC08093F1005D9A84E690E034
:1071400090939B0180939A0108959091E8009E7717
:107150009093E8009091E80090FDEDCF9EB39111DF
:10716000F9CF0895F89410926F0010928100109258
:1071700085001092840081E085BF15BE5D98289837
:107180000C94000008958091A0019091A1010196B6
:107190009093A1018093A0019C01220F232F221F15
:1071A000330B3195422F27FF02C04EEF421B440F95
:1071B000481718F45D98289A08955D9A28980895BC
:1071C00084B7877F84BF88E10FB6F894809360000E
:1071D000109260000FBE90E080E80FB6F8948093A4
:1071E0006100909361000FBE81E085BF82E085BFA2
:1071F000209A559AE1E6F0E090E8908310825D983D
:107200002898109289009AEF9093880080936F00DD
:1072100083E080938100BFC31F920F920FB60F923D
:1072200011242F938F939F93EF93FF9310928500D8
:107230001092840080919A0190919B01009741F0F7
:10724000019790939B0180939A01892B09F45D9893
:107250008091980190919901009741F00197909346
:10726000990180939801892B09F42898E0E0F0E0D7
:1072700085919491019649F08091960190919701A2
:1072800001969093970180939601FF91EF919F91C2
:107290008F912F910F900FBE0F901F90189542E085
:1072A00061EC82E00BD342E161E883E007D342E185
:1072B00060E884E003C38091A401982F9F77913206
:1072C00039F59091A501903291F0913209F5813A0A
:1072D000F9F48091E800877F8093E80067E070E030
:1072E00083E091E01ED48091E8008B770FC081325B
:1072F00079F48091E800877F8093E80067E070E090
:1073000083E091E067D48091E8008E778093E80075
:1073100008954F925F926F927F928F929F92AF9259
:10732000BF92CF92DF92EF92FF92CF93DF9384E0F0
:107330008093E9008091E80082FF30C2289A84E6B9
:1073400090E09093990180939801D6DED82F8534F0
:1073500081F48CE49DE1909397018093960107B6A8
:1073600000FCFDCFF999FECF81E180935700E895AD
:1073700003C0843521F4C0DE8DE0D6DEE6C18C3456
:10738000D9F38035C9F3843721F484E4CDDE80E07D
:10739000F4CF813611F489E5F0CF813491F4ACDE7D
:1073A000C82FAADE90E0880F991F2C2F30E0322FD3
:1073B0002227330F822B932BAA2797FDA095BA2F54
:1073C00098C1803711F483E5D8CF833549F4CCE8F0
:1073D000D1E08991A9DE21E0C339D207D1F7B5C147
:1073E000863521F481E3A0DE80E3C7CF833731F413
:1073F00087E89ADE85E998DE8EE1BFCF8536B9F45D
:10740000E0E0F0E083E095E080935700E89507B670
:1074100000FCFDCF90935700E89507B600FCFDCF28
:10742000E058FF4FE11520E7F20771F7A5CF82374B
:1074300019F4E1E0F0E00EC0863419F4E0E0F0E089
:1074400009C08E3419F4E3E0F0E004C0813539F46A
:10745000E2E0F0E089E08093570084918ECF82369D
:1074600031F489E561DE80E05FDE80E886CF82343A
:1074700019F0873609F0D5C0109297011092960145
:107480003BDED82E39DEE82E37DEC82F8BEB8C0F93
:10749000823010F08FE371CFF12CFD2810926F0035
:1074A000D73609F045C081E180935700E895570130
:1074B000912CD1E0A114B10409F4AFC0C0909C019B
:1074C000D0909D01E0909E01F0909F01C634B9F4E8
:1074D000E92DF0E0EC29FD29849126DE992069F060
:1074E00082E0C80ED11CE11CF11CC0929C01D0921C
:1074F0009D01E0929E01F0929F019D2615C0D7014B
:10750000C601B695A79597958795AFD40DDEE2E0B5
:10751000CE0ED11CE11CF11CC0929C01D0929D01A9
:10752000E0929E01F0929F01F1E0AF1AB108C2CF44
:1075300080909C0190909D01A0909E01B0909F0131
:10754000C63421F0C12CD12CD1E030C083E0F4014D
:1075500080935700E89507B600FCFDCFF3CFC63403
:1075600061F5DD2039F140909C0150909D016090C3
:107570009E0170909F01C0DD2C2D30E0382BF20170
:107580000901D0935700E8951124F2E04F0E511CE9
:10759000611C711C40929C0150929D0160929E0161
:1075A00070929F01DD2621E0E21AF108E114F10456
:1075B000B1F627C0A1DDC82EF5CF9EDD682F8091E2
:1075C0009C0190919D01A0919E01B0919F01B69563
:1075D000A7959795879551D440919C0150919D0115
:1075E00060919E0170919F014E5F5F4F6F4F7F4F83
:1075F00040939C0150939D0160939E0170939F0165
:10760000D2CFC63441F485E0F40180935700E89569
:1076100007B600FCFDCF8DE087DD82E080936F0030
:1076200094C0833471F4C0919C01D0919D0164DDBC
:1076300090E021E0FE010C0120935700E895112411
:107640009BCE833601F5C0909C01D0909D01E090C7
:107650009E01F0909F0150DDF601E16090E021E095
:107660000C0120935700E8951124F2E0CF0ED11CB5
:10767000E11CF11CC0929C01D0929D01E0929E0100
:10768000F0929F0179CE8D3661F4E0919C01F091EA
:107690009D0185E080935700E89507B600FCFDCF7B
:1076A0006BCE823551F4E0919C01F0919D01C59122
:1076B000D4918D2F39DD8C2F60CE843419F51CDDEB
:1076C000682F80919C0190919D01A0919E01B091A5
:1076D0009F01B695A79597958795CFD380919C01EB
:1076E00090919D01A0919E01B0919F010296A11DD4
:1076F000B11D80939C0190939D01A0939E01B09336
:107700009F013ACE8436F1F4C0909C01D0909D0147
:10771000E0909E01F0909F01D701C601B695A79514
:1077200097958795A2D300DD22E0C20ED11CE11C03
:10773000F11CC0929C01D0929D01E0929E01F092BA
:107740009F0103C08B3109F0A5CE83E08093E9004F
:107750009091E8008091E8008E778093E80095FD95
:1077600011C08091E80080FD04C08EB38111F9CF73
:1077700015C08091E8008E778093E80003C08EB337
:10778000882361F08091E80080FFF9CF84E0809346
:10779000E9008091E8008B778093E800DF91CF913A
:1077A000FF90EF90DF90CF90BF90AF909F908F9021
:1077B0007F906F905F904F90089580910008909116
:1077C0000108109201081092000844B714BE28E185
:1077D0000FB6F89420936000109260000FBE41FD38
:1077E0001AC040FF09C0E0E0F0E0259134912F3F3E
:1077F0003F4F11F0B7DC0FC043FF0DC020910001D7
:10780000309101018217930731F0E0E0F0E08591BB
:107810009491019679F7D4DC7894109297011092A4
:10782000960180910201882369F073DD07D380916E
:1078300096019091970181349F4110F010920201BE
:10784000A2DCEFCF8091E00081608093E0008ADCD1
:1078500080E090E00895292F30E02230310539F0A2
:107860002330310549F02130310561F410C08EE339
:1078700090E02CE331E01EC0882371F0813089F064
:107880008230A1F080E090E020E030E013C082E19F
:1078900090E02AE731E00EC084E090E028E331E098
:1078A00009C082E190E024E231E004C088E190E088
:1078B0002AE031E0FA013183208308958093E900C2
:1078C000EBEEF0E0808181608083EDEEF0E01082ED
:1078D0006093EC0040838091EE00881F8827881F0A
:1078E00008958091A40187FD05C08091E80080FF84
:1078F0000DC010C08091E80082FD04C08EB38111DC
:10790000F9CF08958091E8008B7707C08EB381117D
:10791000ECCF08958091E8008E778093E800089579
:107920000F931F93CF93DF9341D048D0C8EDD0E0A1
:1079300088818F77888388818068888388818F7D1C
:10794000888319BC1EBA1092A20100EE10E0F80163
:1079500080818B7F808388818160888342E060E0C2
:1079600080E0ACDFE1EEF0E080818E7F8083E2EEAC
:10797000F0E0808181608083808188608083F8016D
:1079800080818E7F8083888180618883DF91CF9121
:107990001F910F910895E7EDF0E080818160808371
:1079A0008AE482BF81E08093A301BACFE8EDF0E0E2
:1079B00080818E7F80831092E20008951092DA0019
:1079C0001092E10008951F920F920FB60F921124AA
:1079D0002F933F934F935F936F937F938F939F93D7
:1079E000AF93BF93EF93FF938091DA0080FF19C0AC
:1079F0008091D80080FF15C08091DA008E7F80933F
:107A0000DA008091D90019BC80FF09C082E089BDED
:107A100009B400FEFDCF81E08EBB0FD202C01EBABA
:107A20000CD28091E10080FF17C08091E20080FFBE
:107A300013C08091E2008E7F8093E2008091E2008B
:107A400080618093E2008091D80080628093D800AA
:107A500019BC85E08EBBF1D18091E10084FF2BC081
:107A60008091E20084FF27C019BC82E089BD09B47F
:107A700000FEFDCF8091D8008F7D8093D80080914B
:107A8000E1008F7E8093E1008091E2008F7E809301
:107A9000E2008091E20081608093E2008091A20187
:107AA000811104C08091E30087FF02C084E001C01F
:107AB00081E08EBBC2D18091E10083FF21C0809123
:107AC000E20083FF1DC08091E100877F8093E10089
:107AD00082E08EBB1092A2018091E1008E7F8093A4
:107AE000E1008091E2008E7F8093E2008091E200CD
:107AF00080618093E20042E060E080E0DFDE9DD1C3
:107B0000FF91EF91BF91AF919F918F917F916F9175
:107B10005F914F913F912F910F900FBE0F901F904B
:107B200018952091AA013091AB012617370748F02C
:107B30006115710539F42091E8002E772093E80053
:107B400001C0B901FC0120E061157105A1F18EB3FE
:107B50008823E1F18530E1F18091E80083FD34C0B4
:107B60008091E80082FF06C08091E80082FF26C075
:107B700080E008958091E80080FFE6CF2091F30037
:107B80008091F20090E0922B6115710551F08830E0
:107B9000910538F421912093F1006150710901960B
:107BA000F3CF21E0089709F020E08091E8008E777C
:107BB0008093E800C9CF2111CACFD6CF8EB38823D6
:107BC00029F0853089F604C081E0089582E00895A7
:107BD00083E008956115710529F42091E8002B7761
:107BE0002093E8006115710531F12EB3222361F174
:107BF000253061F12091E80023FD22C02091E800AA
:107C000022FFF3CFFC01CF014091F3002091F2005D
:107C100030E0342B232B09F38091F1008193CF01C5
:107C2000615071096115710571F7D7CF8EB3882343
:107C300059F0853059F08091E80080FFF7CF02C0FD
:107C400081E0089580E0089582E0089583E008953A
:107C50000F931F93CF93DF9300D0CDB7DEB7E4EA45
:107C6000F1E08091F100819381E0EC3AF807C9F7E7
:107C700022DB8091E80083FFCBC02091A4013091EA
:107C8000A501832F90E08A30910508F0C1C0FC0166
:107C9000EA5AF74CE4C0223809F0BAC08091A80132
:107CA00087708093E9009091EB001092E900809139
:107CB000E800877F8093E80095FB882780F9809310
:107CC000F1001092F10082C0822F8D7F09F0A0C0D8
:107CD000223009F09DC08091A601811124C020911D
:107CE000A801277009F494C02093E9008091EB006B
:107CF00080FF19C08091EB00333011F4806211C015
:107D000080618093EB0081E090E0022E01C0880F3B
:107D10000A94EAF78093EA001092EA008091EB005F
:107D200088608093EB001092E9008091E800877FE3
:107D300050C021116DC01091A6011F770FB7F894A4
:107D40008091E800877F8093E800CBDD8091E80098
:107D500080FFFCCF8091E3008078812B8093E3004B
:107D600080688093E300112311F083E001C082E07A
:107D70008EBB0FBF4DC02058223008F049C0AE0165
:107D80004F5F5F4F6091A8018091A6019091A7017C
:107D900062DD009709F43CC02091E800277F209322
:107DA000E800BC0189819A81BCDE8091E8008B7774
:107DB0008093E8002DC0203859F58091E800877F36
:107DC0008093E8008091A2018093F1008091E80007
:107DD0008E778093E80085DD1BC0211119C090913A
:107DE000A6019230A8F48091E800877F8093E80094
:107DF0009093A20176DD8091A201811104C080914F
:107E0000E30087FF02C084E001C081E08EBB47DA57
:107E10008091E80083FF0AC08091EB00806280932C
:107E2000EB008091E800877F8093E8000F900F902F
:107E3000DF91CF911F910F9108950895CF938EB345
:107E4000882359F0C091E900C7701092E900809131
:107E5000E80083FDFDDEC093E900CF910895EE0FA9
:107E6000FF1F0590F491E02D0994F999FECF92BD82
:107E700081BDF89A992780B50895262FF999FECFEC
:107E80001FBA92BD81BD20BD0FB6F894FA9AF99A37
:0A7E90000FBE01960895F894FFCF8D
:107E9A00777701000000000000081803530065000E
:107EAA006500650064007300740075006400690071
:107EBA006F000000120351007500690072006B0028
:107ECA0062006F00740000000403090409023E0006
:107EDA0002010080320904000001020201000524A7
:107EEA000010010424020405240600010705820388
:107EFA000800FF09040100020A0000000705040245
:107F0A00100001070583021000011201100102008E
:107F1A000008862805F00100020100015155495266
:067F2A004B424F54000021
:040000030000700089
:00000001FF
