:1070000055C000009BC0000099C0000097C0000060
:1070100095C0000093C0000091C000008FC0000028
:107020008DC000008BC000004FC5000087C000006D
:1070300085C0000083C0000081C000007FC0000048
:107040007DC000007BC0000079C0000077C0000058
:1070500029C3000073C0000071C000006FC00000B1
:107060006DC000006BC0000069C0000067C0000078
:1070700065C0000063C0000061C000005FC0000088
:107080005DC000005BC0000059C0000057C0000098
:1070900055C0000053C0000051C000004FC00000A8
:1070A0004DC000004BC0000049C0000011241FBEAD
:1070B000CFEFDAE0DEBFCDBF84B714BE81FD0CC0D8
:1070C00080FD0CC021E08091C2019091C3018737FF
:1070D000974729F020E003C020E001C021E0E0E074
:1070E000F0E0859194912223A1F0019691F084B76C
:1070F000877F84BF88E10FB6F89480936000109278
:1071000060000FBE1092C3011092C201E0E0F0E0F7
:10711000099511E0A0E0B1E0E8EBFEE702C00590C0
:107120000D92A23BB107D9F721E0A2EBB1E001C07B
:107130001D92A23CB207E1F731D0BCC661CF84E01A
:107140008093E9008091E80085FD0EC08091E80001
:107150008B778093E8008091E80082FDF3CF8EB3B7
:107160008111F9CF80E008958091F100089593E0B6
:107170009093E9009091E80095FF03C08093F1009F
:1071800008959091E8009E779093E8009091E80030
:1071900090FDF4CF9EB39111F9CF0895CF93DF9373
:1071A00000D01F92CDB7DEB784B7877F84BF88E158
:1071B0000FB6F89480936000109260000FBE90E0CC
:1071C00080E80FB6F89480936100909361000FBE41
:1071D00011E015BF82E085BF5AD4209A289A559AAB
:1071E0005D9A10936F0083E08093810028985D9AE8
:1071F0007894A3E07A2EB5E06B2E212C312C80916F
:107200000001882309F431C213B980E289B994E0FE
:107210009093E9008091E80082FF25C290DF982FCB
:10722000853419F41092000107C088E8890F823074
:1072300010F0943521F483DF8DE099DFECC19035B7
:10724000D9F39C34C9F3943721F484E490DF80E0CF
:10725000F4CF913611F489E5F0CF913491F46FDFDA
:10726000082F6DDF90E0880F991F202F30E0322F1C
:107270002227330F822B932BAA2797FDA095BA2F95
:107280009EC1903711F483E5D8CF933571F47AEA33
:10729000E72E71E0F72EF70181917F0168DFF1EBB6
:1072A000EF16F1E0FF06B9F7B6C1963521F481E398
:1072B0005EDF80E3C2CF933731F487E858DF85E99A
:1072C00056DF8EE1BACF9536A9F4E0E0F0E0709297
:1072D0005700E89507B600FCFDCF60925700E8958F
:1072E00007B600FCFDCFE058FF4FE11580E7F80737
:1072F00071F7A2CF9C3651F422DF809599E0E1E04E
:10730000F0E0082E90935700E89596CF923721F43D
:1073100089E0E1E0F0E010C0963419F489E0F10171
:107320000BC09E3421F489E0E3E0F0E005C0913524
:1073300039F489E0E2E0F0E08093570084917DCF5A
:10734000923631F489E513DF80E011DF80E875CFF4
:10735000923419F0973609F0CDC09983F0DE882E6B
:10736000912C982C8824EBDE882AE9DE082F8BEB01
:10737000800F9981823010F08FE35FCF973609F04C
:1073800043C081E180935700E895B12C81149104AA
:1073900009F441C1C090B201D090B301E090B401B2
:1073A000F090B5010634B9F4EB2DF0E0EC29FD299D
:1073B0008491DDDEBB2069F0F2E0CF0ED11CE11C30
:1073C000F11CC092B201D092B301E092B401F092EC
:1073D000B501B12615C0D701C601B695A7959795F9
:1073E000879552D5C4DE82E0C80ED11CE11CF11C89
:1073F000C092B201D092B301E092B401F092B50113
:1074000091E0891A9108C2CFC090B201D090B30127
:10741000E090B401F090B501063429F09B828A8295
:10742000412C512C31C0F60170925700E89507B6F7
:1074300000FCFDCFF3CF063479F5552051F1809053
:10744000B2019090B301A090B401B090B50177DE85
:10745000242D30E0382BF401090110935700E895F2
:107460001124F2E08F0E911CA11CB11C8092B2017C
:107470009092B301A092B401B092B50151268A81D5
:107480009B8101979B838A83EA81FB81EF2B99F68D
:1074900026C055DE482EF2CF52DE682F8091B20111
:1074A0009091B301A091B401B091B501B695A795A3
:1074B00097958795F1D48091B2019091B301A091F5
:1074C000B401B091B5010296A11DB11D8093B20126
:1074D0009093B301A093B401B093B501D0CF06341B
:1074E00009F0AACEF60160925700E89507B600FCB5
:1074F000FDCFA2CE933469F4E090B201F090B301D5
:107500001EDE90E0F7010C0110935700E89511245E
:1075100093CE9336F9F4C090B201D090B301E090CD
:10752000B401F090B5010BDEF601E16090E00C01D2
:1075300010935700E8951124F2E0CF0ED11CE11C06
:10754000F11CC092B201D092B301E092B401F0926A
:10755000B50172CE9D3659F4E091B201F091B301BC
:1075600060925700E89507B600FCFDCF65CE9235D6
:1075700051F4E091B201F091B301E590F4908F2DB8
:10758000F6DD8E2D5ACE943419F5D9DD682F809111
:10759000B2019091B301A091B401B091B501B6953B
:1075A000A7959795879578D48091B2019091B30172
:1075B000A091B401B091B5010296A11DB11D8093B7
:1075C000B2019093B301A093B401B093B50134CE4E
:1075D0009436F1F4C090B201D090B301E090B401C0
:1075E000F090B501D701C601B695A79597958795F7
:1075F0004BD4BDDD82E0C80ED11CE11CF11CC09251
:10760000B201D092B301E092B401F092B50103C08F
:107610009B3109F0B1CE7092E9009091E800809121
:10762000E8008E778093E80095FD11C08091E80016
:1076300080FD04C08EB38111F9CF15C08091E800A0
:107640008E778093E80003C08EB3882361F0809129
:10765000E80080FFF9CF94E09093E9008091E80082
:107660008B778093E800F5D3CACDEFECF7E0319744
:10767000F1F700C000008091E00081608093E0009D
:1076800087E797E79093C3018093C2012CE088E1DC
:1076900090E00FB6F894A895809360000FBE2093F9
:1076A0006000FFCF1F920F920FB60F9211248F939D
:1076B00081E083B980E289B98F910F900FBE0F905E
:1076C0001F90189542E061EC82E06FD142E161E8E1
:1076D00083E06BD142E160E884E067C18091BA0148
:1076E0008F77813209F03DC081E083B980E289B9AA
:1076F0008091BB01813229F0823249F1803289F5D3
:1077000012C08091BA01813A61F58091E800877FCB
:107710008093E80067E070E081E091E0A8D080917C
:10772000E8008B7711C08091BA018132D1F4809149
:10773000E800877F8093E80067E070E081E091E0F7
:10774000F6D08091E8008E778093E80008958091CC
:10775000BA01813231F48091E800877F8093E8009C
:1077600038C10895292F30E02230310539F0233017
:10777000310549F02130310561F410C086E490E014
:1077800022E531E01EC0882371F0813089F082301B
:10779000A1F080E090E020E030E013C082E190E0D2
:1077A00028E931E00EC084E090E02EE431E009C029
:1077B00080E390E02CE131E004C082E190E028E039
:1077C00031E0FA0131832083089507B600FCFDCF34
:1077D000F999FECF23E0FB0120935700E89507B607
:1077E00000FCFDCF81E180935700E895089507B62E
:1077F00000FCFDCFF999FECF25E0FB012093570057
:10780000E89507B600FCFDCF81E180935700E8952D
:10781000089507B600FCFDCFF999FECF21E0FB01EA
:107820000A0120935700E8951124089521E2FC01F4
:10783000209357008491089529E0FC01209357007C
:1078400084910895E1E0F0E089E08093570084910D
:10785000089507B600FCFDCFF999FECF809599E019
:10786000E1E0F0E0082E90935700E895089520910C
:10787000C0013091C1012617370748F06115710525
:1078800039F42091E8002E772093E80001C0B90177
:10789000FC0120E061157105B9F18EB3882309F46C
:1078A00040C0853009F43FC08091E80083FD3DC0B1
:1078B0008091E80082FF06C08091E80082FF27C027
:1078C00080E008958091E80080FFE4CF2091F300EC
:1078D0008091F20090E0922B6115710551F0803497
:1078E000910538F421912093F100615071090196BE
:1078F000F3CF21E08034910509F020E08091E80089
:107900008E778093E800C6CF2111C7CFD5CF8EB335
:10791000882339F0853039F08091E80083FFCCCF9F
:1079200004C082E0089583E0089581E00895611520
:10793000710529F42091E8002B772093E800611568
:10794000710531F12EB3222361F1253061F12091CF
:10795000E80023FD22C02091E80022FFF3CFFC01C4
:10796000CF014091F3002091F20030E0342B232B23
:1079700009F38091F1008193CF0161507109611584
:10798000710571F7D7CF8EB3882359F0853059F040
:107990008091E80080FFF7CF02C081E0089580E089
:1079A000089582E0089583E008958F708093E90040
:1079B000EBEEF0E0808181608083EDEEF0E01082FC
:1079C0006093EC0040838091EE00881F8827881F19
:1079D00008958091BA0187FD05C08091E80080FF7D
:1079E0000DC010C08091E80082FD04C08EB38111EB
:1079F000F9CF08958091E8008B7707C08EB381118D
:107A0000ECCF08958091E8008E778093E800089588
:107A10000F931F93CF93DF934AD051D0C8EDD0E09E
:107A200088818F77888388818068888388818F7D2B
:107A3000888319BC1EBA1092B6011092B801109238
:107A4000B70100EE10E0F80180818B7F8083888190
:107A50008160888342E360E080E0A7DFE1EEF0E050
:107A600080818E7F8083E2EEF0E080818160808380
:107A7000808188608083F80180818E7F8083888107
:107A800080618883DF91CF911F910F910895E8ED78
:107A9000F0E080818F7E8083E7EDF0E0808181607F
:107AA000808384E082BF81E08093B901B1CFE8EDAB
:107AB000F0E080818E7F80831092E2000895109222
:107AC000DA001092E10008951F920F920FB60F9204
:107AD00011242F933F934F935F936F937F938F93D3
:107AE0009F93AF93BF93EF93FF938091DA0080FF52
:107AF00019C08091D80080FF15C08091DA008E7F78
:107B00008093DA008091D90019BC80FF09C082E01F
:107B100089BD09B400FEFDCF81E08EBB99D102C0C2
:107B20001EBA96D18091E10080FF17C08091E200DB
:107B300080FF13C08091E2008E7F8093E2008091ED
:107B4000E20080618093E2008091D800806280939F
:107B5000D80019BC85E08EBB7BD18091E10084FF09
:107B60002DC08091E20084FF29C019BC82E089BD4C
:107B700009B400FEFDCF8091D8008F7D8093D8009E
:107B80008091E1008F7E8093E1008091E2008F7E02
:107B90008093E2008091E20081608093E200809116
:107BA000B601882311F084E007C08091E30087FFCD
:107BB00002C083E001C081E08EBB4AD18091E10028
:107BC00083FF21C08091E20083FF1DC08091E1000E
:107BD000877F8093E10082E08EBB1092B601809196
:107BE000E1008E7F8093E1008091E2008E7F8093A0
:107BF000E2008091E20080618093E20042E360E075
:107C000080E0D3DE25D1FF91EF91BF91AF919F919D
:107C10008F917F916F915F914F913F912F910F9035
:107C20000FBE0F901F9018951F93CF93DF9300D036
:107C3000CDB7DEB7EAEBF1E08091F100819381E00E
:107C4000E23CF807C9F74ADD8091E80083FFECC009
:107C50009091BA018091BB01853009F477C030F46E
:107C6000813081F168F0833069F1DEC0883009F439
:107C7000AEC0893009F4BDC0863009F0D5C087C0D8
:107C8000903881F0923809F0CFC08091BE018F709A
:107C90008093E9008091EB0085FB882780F91092A2
:107CA000E90006C08091B7019091B80191118260FE
:107CB0009091E800977F9093E8008093F1001092F4
:107CC000F10090C0292F2D7F09F0AEC0992319F043
:107CD000923061F0A9C09091BC01913009F0A4C02C
:107CE000833009F090E09093B8012AC09091BC01D4
:107CF000911126C02091BE012F7009F495C02093E8
:107D0000E9009091EB0090FF1BC0833021F480913B
:107D1000EB00806213C08091EB0080618093EB00E8
:107D200081E090E0022E01C0880F0A94EAF7809368
:107D3000EA001092EA008091EB0088608093EB00EB
:107D40001092E9008091E800877F4FC091116CC0CC
:107D50001091BC011F778091E3008078812B809384
:107D6000E3008091E800877F8093E80032DE809115
:107D7000E80080FFFCCF8091E30080688093E300FF
:107D8000112311F083E001C082E08EBB4DC09058FA
:107D9000923008F049C0AE014F5F5F4F6091BE0165
:107DA0008091BC019091BD01DDDC009709F43CC0DD
:107DB0002091E800277F2093E800BC0189819A8107
:107DC00056DD8091E8008B778093E8002DC09038D5
:107DD00059F58091E800877F8093E8008091B60193
:107DE0008093F1008091E8008E778093E800F1DDC8
:107DF0001BC0911119C09091BC019230A8F48091E0
:107E0000E800877F8093E8009093B601E2DD8091DF
:107E1000B601811104C08091E30087FF02C084E0B5
:107E200001C081E08EBB4EDC8091E80083FF0AC078
:107E30008091E800877F8093E8008091EB0080626A
:107E40008093EB000F900F90DF91CF911F910895D9
:107E50000895CF938EB38823A9F08091E9008F70A5
:107E60009091EC0090FF02C090E801C090E0C92F13
:107E7000C82B1092E9008091E80083FDD5DECF7019
:107E8000C093E900CF910895F999FECF92BD81BDCD
:107E9000F89A992780B50895262FF999FECF1FBA31
:107EA00092BD81BD20BD0FB6F894FA9AF99A0FBE23
:087EB00001960895F894FFCF3C
:107EB8000100000000000040120351007500690035
:107EC80072006B0062006F00740000003003510004
:107ED8007500690072006B0062006F00740020007A
:107EE800280071007500690072006B0062006F0065
:107EF80074002E0063006F006D0029000000040369
:107F08000904090246000201006032080B0002025F
:107F1800020100090400000102020100052400100A
:107F2800010424020605240600010705820308004F
:107F3800FF09040100020A000000070504021000FE
:107F48000507058302100005120100020202014024
:107F5800862805F0000101020001515549524B42A3
:027F68004F00C8
:107FA00014CC25CC36CC42CC47CC4CCC52CC08950A
:087FB000089508950895089555
:107FE000DFCFDFCFDFCFDFCFDFCFDFCFDFCFDFCF21
:087FF000DFCFDFCFDFCFDFCFD1
:087FF8000070000000DFFBDC5B
:040000030000700089
:00000001FF
